{
  "contracts/RockPaperScissors.sol": {
    "RockPaperScissors": {
      "abi": [
        {
          "inputs": [
            {
              "internalType": "uint256",
              "name": "_initialBet",
              "type": "uint256"
            }
          ],
          "stateMutability": "nonpayable",
          "type": "constructor"
        },
        {
          "inputs": [],
          "name": "Alice",
          "outputs": [
            {
              "internalType": "address payable",
              "name": "",
              "type": "address"
            }
          ],
          "stateMutability": "view",
          "type": "function"
        },
        {
          "inputs": [],
          "name": "BET_MIN",
          "outputs": [
            {
              "internalType": "uint256",
              "name": "",
              "type": "uint256"
            }
          ],
          "stateMutability": "view",
          "type": "function"
        },
        {
          "inputs": [],
          "name": "Bob",
          "outputs": [
            {
              "internalType": "address payable",
              "name": "",
              "type": "address"
            }
          ],
          "stateMutability": "view",
          "type": "function"
        },
        {
          "inputs": [],
          "name": "EMPTY_ADDRESS",
          "outputs": [
            {
              "internalType": "address payable",
              "name": "",
              "type": "address"
            }
          ],
          "stateMutability": "view",
          "type": "function"
        },
        {
          "inputs": [],
          "name": "balanceReceived",
          "outputs": [
            {
              "internalType": "uint256",
              "name": "",
              "type": "uint256"
            }
          ],
          "stateMutability": "view",
          "type": "function"
        },
        {
          "inputs": [],
          "name": "bothPlayed",
          "outputs": [
            {
              "internalType": "bool",
              "name": "",
              "type": "bool"
            }
          ],
          "stateMutability": "view",
          "type": "function"
        },
        {
          "inputs": [],
          "name": "bothRevealed",
          "outputs": [
            {
              "internalType": "bool",
              "name": "",
              "type": "bool"
            }
          ],
          "stateMutability": "view",
          "type": "function"
        },
        {
          "inputs": [],
          "name": "daiToken",
          "outputs": [
            {
              "internalType": "contract IERC20",
              "name": "",
              "type": "address"
            }
          ],
          "stateMutability": "view",
          "type": "function"
        },
        {
          "inputs": [],
          "name": "getContractBalance",
          "outputs": [
            {
              "internalType": "uint256",
              "name": "",
              "type": "uint256"
            }
          ],
          "stateMutability": "view",
          "type": "function"
        },
        {
          "inputs": [],
          "name": "getOutcome",
          "outputs": [
            {
              "internalType": "enum RockPaperScissors.Outcomes",
              "name": "",
              "type": "uint8"
            }
          ],
          "stateMutability": "nonpayable",
          "type": "function"
        },
        {
          "inputs": [],
          "name": "initialBet",
          "outputs": [
            {
              "internalType": "uint256",
              "name": "",
              "type": "uint256"
            }
          ],
          "stateMutability": "view",
          "type": "function"
        },
        {
          "inputs": [
            {
              "internalType": "bytes32",
              "name": "Move",
              "type": "bytes32"
            }
          ],
          "name": "play",
          "outputs": [
            {
              "internalType": "bool",
              "name": "",
              "type": "bool"
            }
          ],
          "stateMutability": "nonpayable",
          "type": "function"
        },
        {
          "inputs": [
            {
              "internalType": "string",
              "name": "clearMove",
              "type": "string"
            }
          ],
          "name": "reveal",
          "outputs": [
            {
              "internalType": "enum RockPaperScissors.Moves",
              "name": "",
              "type": "uint8"
            }
          ],
          "stateMutability": "nonpayable",
          "type": "function"
        }
      ],
      "evm": {
        "bytecode": {
          "linkReferences": {},
          "object": "608060405260016000556236ee806004553480156200001d57600080fd5b5060405162001552380380620015528339818101604052810190620000439190620000a1565b6000548110156200005357600080fd5b8060018190555050620000d3565b600080fd5b6000819050919050565b6200007b8162000066565b81146200008757600080fd5b50565b6000815190506200009b8162000070565b92915050565b600060208284031215620000ba57620000b962000061565b5b6000620000ca848285016200008a565b91505092915050565b61146f80620000e36000396000f3fe608060405234801561001057600080fd5b50600436106100cf5760003560e01c80636f9fb98a1161008c5780639877bdff116100665780639877bdff146101f4578063be22f54614610212578063c7a1865b14610230578063eb39c3af14610260576100cf565b80636f9fb98a1461019a5780637e7e4b47146101b8578063807c8504146101d6576100cf565b80631d73c64c146100d45780632626ab08146100f257806343445ca8146101105780634c2612471461012e57806352a90c421461015e5780636d877f911461017c575b600080fd5b6100dc61027e565b6040516100e99190610e32565b60405180910390f35b6100fa610284565b6040516101079190610e32565b60405180910390f35b61011861028a565b6040516101259190610e68565b60405180910390f35b61014860048036038101906101439190610fdd565b610308565b604051610155919061109d565b60405180910390f35b610166610545565b6040516101739190610e32565b60405180910390f35b61018461054b565b60405161019191906110f9565b60405180910390f35b6101a2610571565b6040516101af9190610e32565b60405180910390f35b6101c0610579565b6040516101cd919061115c565b60405180910390f35b6101de6108eb565b6040516101eb9190610e68565b60405180910390f35b6101fc61090c565b60405161020991906110f9565b60405180910390f35b61021a610932565b60405161022791906111d6565b60405180910390f35b61024a60048036038101906102459190611227565b610958565b6040516102579190610e68565b60405180910390f35b610268610a52565b60405161027591906110f9565b60405180910390f35b60015481565b60005481565b600080600381111561029f5761029e611026565b5b600b60009054906101000a900460ff1660038111156102c1576102c0611026565b5b141580156103035750600060038111156102de576102dd611026565b5b600b60019054906101000a900460ff166003811115610300576102ff611026565b5b14155b905090565b60008060001b6009541415801561032457506000801b600a5414155b61032d57600080fd5b600060028360405160200161034291906112ce565b60405160208183030381529060405260405161035e919061132c565b602060405180830381855afa15801561037b573d6000803e3d6000fd5b5050506040513d601f19601f8201168201806040525081019061039e9190611358565b905060006103ab84610a78565b60038111156103bd576103bc611026565b5b9050600060038111156103d3576103d2611026565b5b8160038111156103e6576103e5611026565b5b14156103f757600092505050610540565b600560009054906101000a900473ffffffffffffffffffffffffffffffffffffffff1673ffffffffffffffffffffffffffffffffffffffff163373ffffffffffffffffffffffffffffffffffffffff16148015610455575060095482145b156104895780600b60006101000a81548160ff0219169083600381111561047f5761047e611026565b5b0217905550610527565b600660009054906101000a900473ffffffffffffffffffffffffffffffffffffffff1673ffffffffffffffffffffffffffffffffffffffff163373ffffffffffffffffffffffffffffffffffffffff161480156104e75750600a5482145b1561051b5780600b60016101000a81548160ff0219169083600381111561051157610510611026565b5b0217905550610526565b600092505050610540565b5b6000600354141561053a57426003819055505b80925050505b919050565b60025481565b600560009054906101000a900473ffffffffffffffffffffffffffffffffffffffff1681565b600047905090565b600080600381111561058e5761058d611026565b5b600b60009054906101000a900460ff1660038111156105b0576105af611026565b5b141580156105f25750600060038111156105cd576105cc611026565b5b600b60019054906101000a900460ff1660038111156105ef576105ee611026565b5b14155b8061061a5750600060035414158015610619575060045460035461061691906113b4565b42115b5b61062357600080fd5b6000600b60019054906101000a900460ff16600381111561064757610646611026565b5b600b60009054906101000a900460ff16600381111561066957610668611026565b5b14156106785760039050610878565b6001600381111561068c5761068b611026565b5b600b60009054906101000a900460ff1660038111156106ae576106ad611026565b5b1480156106ed57506003808111156106c9576106c8611026565b5b600b60019054906101000a900460ff1660038111156106eb576106ea611026565b5b145b8061076a57506002600381111561070757610706611026565b5b600b60009054906101000a900460ff16600381111561072957610728611026565b5b14801561076957506001600381111561074557610744611026565b5b600b60019054906101000a900460ff16600381111561076757610766611026565b5b145b5b806107e6575060038081111561078357610782611026565b5b600b60009054906101000a900460ff1660038111156107a5576107a4611026565b5b1480156107e55750600260038111156107c1576107c0611026565b5b600b60019054906101000a900460ff1660038111156107e3576107e2611026565b5b145b5b80610864575060006003811115610800576107ff611026565b5b600b60009054906101000a900460ff16600381111561082257610821611026565b5b1415801561086357506000600381111561083f5761083e611026565b5b600b60019054906101000a900460ff16600381111561086157610860611026565b5b145b5b156108725760019050610877565b600290505b5b6000600560009054906101000a900473ffffffffffffffffffffffffffffffffffffffff1690506000600660009054906101000a900473ffffffffffffffffffffffffffffffffffffffff169050600060015490506108d5610b4f565b6108e183838387610c91565b8394505050505090565b60008060001b6009541415801561090757506000801b600a5414155b905090565b600660009054906101000a900473ffffffffffffffffffffffffffffffffffffffff1681565b600860009054906101000a900473ffffffffffffffffffffffffffffffffffffffff1681565b6000600560009054906101000a900473ffffffffffffffffffffffffffffffffffffffff1673ffffffffffffffffffffffffffffffffffffffff163373ffffffffffffffffffffffffffffffffffffffff161480156109bb57506000801b600954145b156109cc5781600981905550610a48565b600660009054906101000a900473ffffffffffffffffffffffffffffffffffffffff1673ffffffffffffffffffffffffffffffffffffffff163373ffffffffffffffffffffffffffffffffffffffff16148015610a2d57506000801b600a54145b15610a3e5781600a81905550610a47565b60009050610a4d565b5b600190505b919050565b600760009054906101000a900473ffffffffffffffffffffffffffffffffffffffff1681565b60008082600081518110610a8f57610a8e61140a565b5b602001015160f81c60f81b9050603160f81b817effffffffffffffffffffffffffffffffffffffffffffffffffffffffffffff19161415610ad4576001915050610b4a565b603260f81b817effffffffffffffffffffffffffffffffffffffffffffffffffffffffffffff19161415610b0c576002915050610b4a565b603360f81b817effffffffffffffffffffffffffffffffffffffffffffffffffffffffffffff19161415610b44576003915050610b4a565b60009150505b919050565b60006001819055506000600381905550600760009054906101000a900473ffffffffffffffffffffffffffffffffffffffff16600560006101000a81548173ffffffffffffffffffffffffffffffffffffffff021916908373ffffffffffffffffffffffffffffffffffffffff160217905550600760009054906101000a900473ffffffffffffffffffffffffffffffffffffffff16600660006101000a81548173ffffffffffffffffffffffffffffffffffffffff021916908373ffffffffffffffffffffffffffffffffffffffff1602179055506000801b6009819055506000801b600a819055506000600b60006101000a81548160ff02191690836003811115610c5f57610c5e611026565b5b02179055506000600b60016101000a81548160ff02191690836003811115610c8a57610c89611026565b5b0217905550565b60016003811115610ca557610ca4611026565b5b816003811115610cb857610cb7611026565b5b1415610d0a578373ffffffffffffffffffffffffffffffffffffffff166108fc479081150290604051600060405180830381858888f19350505050158015610d04573d6000803e3d6000fd5b50610e13565b60026003811115610d1e57610d1d611026565b5b816003811115610d3157610d30611026565b5b1415610d83578273ffffffffffffffffffffffffffffffffffffffff166108fc479081150290604051600060405180830381858888f19350505050158015610d7d573d6000803e3d6000fd5b50610e12565b8373ffffffffffffffffffffffffffffffffffffffff166108fc839081150290604051600060405180830381858888f19350505050158015610dc9573d6000803e3d6000fd5b508273ffffffffffffffffffffffffffffffffffffffff166108fc479081150290604051600060405180830381858888f19350505050158015610e10573d6000803e3d6000fd5b505b5b50505050565b6000819050919050565b610e2c81610e19565b82525050565b6000602082019050610e476000830184610e23565b92915050565b60008115159050919050565b610e6281610e4d565b82525050565b6000602082019050610e7d6000830184610e59565b92915050565b6000604051905090565b600080fd5b600080fd5b600080fd5b600080fd5b6000601f19601f8301169050919050565b7f4e487b7100000000000000000000000000000000000000000000000000000000600052604160045260246000fd5b610eea82610ea1565b810181811067ffffffffffffffff82111715610f0957610f08610eb2565b5b80604052505050565b6000610f1c610e83565b9050610f288282610ee1565b919050565b600067ffffffffffffffff821115610f4857610f47610eb2565b5b610f5182610ea1565b9050602081019050919050565b82818337600083830152505050565b6000610f80610f7b84610f2d565b610f12565b905082815260208101848484011115610f9c57610f9b610e9c565b5b610fa7848285610f5e565b509392505050565b600082601f830112610fc457610fc3610e97565b5b8135610fd4848260208601610f6d565b91505092915050565b600060208284031215610ff357610ff2610e8d565b5b600082013567ffffffffffffffff81111561101157611010610e92565b5b61101d84828501610faf565b91505092915050565b7f4e487b7100000000000000000000000000000000000000000000000000000000600052602160045260246000fd5b6004811061106657611065611026565b5b50565b600081905061107782611055565b919050565b600061108782611069565b9050919050565b6110978161107c565b82525050565b60006020820190506110b2600083018461108e565b92915050565b600073ffffffffffffffffffffffffffffffffffffffff82169050919050565b60006110e3826110b8565b9050919050565b6110f3816110d8565b82525050565b600060208201905061110e60008301846110ea565b92915050565b6004811061112557611124611026565b5b50565b600081905061113682611114565b919050565b600061114682611128565b9050919050565b6111568161113b565b82525050565b6000602082019050611171600083018461114d565b92915050565b6000819050919050565b600061119c611197611192846110b8565b611177565b6110b8565b9050919050565b60006111ae82611181565b9050919050565b60006111c0826111a3565b9050919050565b6111d0816111b5565b82525050565b60006020820190506111eb60008301846111c7565b92915050565b6000819050919050565b611204816111f1565b811461120f57600080fd5b50565b600081359050611221816111fb565b92915050565b60006020828403121561123d5761123c610e8d565b5b600061124b84828501611212565b91505092915050565b600081519050919050565b600081905092915050565b60005b8381101561128857808201518184015260208101905061126d565b83811115611297576000848401525b50505050565b60006112a882611254565b6112b2818561125f565b93506112c281856020860161126a565b80840191505092915050565b60006112da828461129d565b915081905092915050565b600081519050919050565b600081905092915050565b6000611306826112e5565b61131081856112f0565b935061132081856020860161126a565b80840191505092915050565b600061133882846112fb565b915081905092915050565b600081519050611352816111fb565b92915050565b60006020828403121561136e5761136d610e8d565b5b600061137c84828501611343565b91505092915050565b7f4e487b7100000000000000000000000000000000000000000000000000000000600052601160045260246000fd5b60006113bf82610e19565b91506113ca83610e19565b9250827fffffffffffffffffffffffffffffffffffffffffffffffffffffffffffffffff038211156113ff576113fe611385565b5b828201905092915050565b7f4e487b7100000000000000000000000000000000000000000000000000000000600052603260045260246000fdfea2646970667358221220d39cd2627eab14e03bf4edd1b5a2f3126071cba48b1654ed08a9685fc854858b64736f6c634300080b0033",
          "opcodes": "PUSH1 0x80 PUSH1 0x40 MSTORE PUSH1 0x1 PUSH1 0x0 SSTORE PUSH3 0x36EE80 PUSH1 0x4 SSTORE CALLVALUE DUP1 ISZERO PUSH3 0x1D JUMPI PUSH1 0x0 DUP1 REVERT JUMPDEST POP PUSH1 0x40 MLOAD PUSH3 0x1552 CODESIZE SUB DUP1 PUSH3 0x1552 DUP4 CODECOPY DUP2 DUP2 ADD PUSH1 0x40 MSTORE DUP2 ADD SWAP1 PUSH3 0x43 SWAP2 SWAP1 PUSH3 0xA1 JUMP JUMPDEST PUSH1 0x0 SLOAD DUP2 LT ISZERO PUSH3 0x53 JUMPI PUSH1 0x0 DUP1 REVERT JUMPDEST DUP1 PUSH1 0x1 DUP2 SWAP1 SSTORE POP POP PUSH3 0xD3 JUMP JUMPDEST PUSH1 0x0 DUP1 REVERT JUMPDEST PUSH1 0x0 DUP2 SWAP1 POP SWAP2 SWAP1 POP JUMP JUMPDEST PUSH3 0x7B DUP2 PUSH3 0x66 JUMP JUMPDEST DUP2 EQ PUSH3 0x87 JUMPI PUSH1 0x0 DUP1 REVERT JUMPDEST POP JUMP JUMPDEST PUSH1 0x0 DUP2 MLOAD SWAP1 POP PUSH3 0x9B DUP2 PUSH3 0x70 JUMP JUMPDEST SWAP3 SWAP2 POP POP JUMP JUMPDEST PUSH1 0x0 PUSH1 0x20 DUP3 DUP5 SUB SLT ISZERO PUSH3 0xBA JUMPI PUSH3 0xB9 PUSH3 0x61 JUMP JUMPDEST JUMPDEST PUSH1 0x0 PUSH3 0xCA DUP5 DUP3 DUP6 ADD PUSH3 0x8A JUMP JUMPDEST SWAP2 POP POP SWAP3 SWAP2 POP POP JUMP JUMPDEST PUSH2 0x146F DUP1 PUSH3 0xE3 PUSH1 0x0 CODECOPY PUSH1 0x0 RETURN INVALID PUSH1 0x80 PUSH1 0x40 MSTORE CALLVALUE DUP1 ISZERO PUSH2 0x10 JUMPI PUSH1 0x0 DUP1 REVERT JUMPDEST POP PUSH1 0x4 CALLDATASIZE LT PUSH2 0xCF JUMPI PUSH1 0x0 CALLDATALOAD PUSH1 0xE0 SHR DUP1 PUSH4 0x6F9FB98A GT PUSH2 0x8C JUMPI DUP1 PUSH4 0x9877BDFF GT PUSH2 0x66 JUMPI DUP1 PUSH4 0x9877BDFF EQ PUSH2 0x1F4 JUMPI DUP1 PUSH4 0xBE22F546 EQ PUSH2 0x212 JUMPI DUP1 PUSH4 0xC7A1865B EQ PUSH2 0x230 JUMPI DUP1 PUSH4 0xEB39C3AF EQ PUSH2 0x260 JUMPI PUSH2 0xCF JUMP JUMPDEST DUP1 PUSH4 0x6F9FB98A EQ PUSH2 0x19A JUMPI DUP1 PUSH4 0x7E7E4B47 EQ PUSH2 0x1B8 JUMPI DUP1 PUSH4 0x807C8504 EQ PUSH2 0x1D6 JUMPI PUSH2 0xCF JUMP JUMPDEST DUP1 PUSH4 0x1D73C64C EQ PUSH2 0xD4 JUMPI DUP1 PUSH4 0x2626AB08 EQ PUSH2 0xF2 JUMPI DUP1 PUSH4 0x43445CA8 EQ PUSH2 0x110 JUMPI DUP1 PUSH4 0x4C261247 EQ PUSH2 0x12E JUMPI DUP1 PUSH4 0x52A90C42 EQ PUSH2 0x15E JUMPI DUP1 PUSH4 0x6D877F91 EQ PUSH2 0x17C JUMPI JUMPDEST PUSH1 0x0 DUP1 REVERT JUMPDEST PUSH2 0xDC PUSH2 0x27E JUMP JUMPDEST PUSH1 0x40 MLOAD PUSH2 0xE9 SWAP2 SWAP1 PUSH2 0xE32 JUMP JUMPDEST PUSH1 0x40 MLOAD DUP1 SWAP2 SUB SWAP1 RETURN JUMPDEST PUSH2 0xFA PUSH2 0x284 JUMP JUMPDEST PUSH1 0x40 MLOAD PUSH2 0x107 SWAP2 SWAP1 PUSH2 0xE32 JUMP JUMPDEST PUSH1 0x40 MLOAD DUP1 SWAP2 SUB SWAP1 RETURN JUMPDEST PUSH2 0x118 PUSH2 0x28A JUMP JUMPDEST PUSH1 0x40 MLOAD PUSH2 0x125 SWAP2 SWAP1 PUSH2 0xE68 JUMP JUMPDEST PUSH1 0x40 MLOAD DUP1 SWAP2 SUB SWAP1 RETURN JUMPDEST PUSH2 0x148 PUSH1 0x4 DUP1 CALLDATASIZE SUB DUP2 ADD SWAP1 PUSH2 0x143 SWAP2 SWAP1 PUSH2 0xFDD JUMP JUMPDEST PUSH2 0x308 JUMP JUMPDEST PUSH1 0x40 MLOAD PUSH2 0x155 SWAP2 SWAP1 PUSH2 0x109D JUMP JUMPDEST PUSH1 0x40 MLOAD DUP1 SWAP2 SUB SWAP1 RETURN JUMPDEST PUSH2 0x166 PUSH2 0x545 JUMP JUMPDEST PUSH1 0x40 MLOAD PUSH2 0x173 SWAP2 SWAP1 PUSH2 0xE32 JUMP JUMPDEST PUSH1 0x40 MLOAD DUP1 SWAP2 SUB SWAP1 RETURN JUMPDEST PUSH2 0x184 PUSH2 0x54B JUMP JUMPDEST PUSH1 0x40 MLOAD PUSH2 0x191 SWAP2 SWAP1 PUSH2 0x10F9 JUMP JUMPDEST PUSH1 0x40 MLOAD DUP1 SWAP2 SUB SWAP1 RETURN JUMPDEST PUSH2 0x1A2 PUSH2 0x571 JUMP JUMPDEST PUSH1 0x40 MLOAD PUSH2 0x1AF SWAP2 SWAP1 PUSH2 0xE32 JUMP JUMPDEST PUSH1 0x40 MLOAD DUP1 SWAP2 SUB SWAP1 RETURN JUMPDEST PUSH2 0x1C0 PUSH2 0x579 JUMP JUMPDEST PUSH1 0x40 MLOAD PUSH2 0x1CD SWAP2 SWAP1 PUSH2 0x115C JUMP JUMPDEST PUSH1 0x40 MLOAD DUP1 SWAP2 SUB SWAP1 RETURN JUMPDEST PUSH2 0x1DE PUSH2 0x8EB JUMP JUMPDEST PUSH1 0x40 MLOAD PUSH2 0x1EB SWAP2 SWAP1 PUSH2 0xE68 JUMP JUMPDEST PUSH1 0x40 MLOAD DUP1 SWAP2 SUB SWAP1 RETURN JUMPDEST PUSH2 0x1FC PUSH2 0x90C JUMP JUMPDEST PUSH1 0x40 MLOAD PUSH2 0x209 SWAP2 SWAP1 PUSH2 0x10F9 JUMP JUMPDEST PUSH1 0x40 MLOAD DUP1 SWAP2 SUB SWAP1 RETURN JUMPDEST PUSH2 0x21A PUSH2 0x932 JUMP JUMPDEST PUSH1 0x40 MLOAD PUSH2 0x227 SWAP2 SWAP1 PUSH2 0x11D6 JUMP JUMPDEST PUSH1 0x40 MLOAD DUP1 SWAP2 SUB SWAP1 RETURN JUMPDEST PUSH2 0x24A PUSH1 0x4 DUP1 CALLDATASIZE SUB DUP2 ADD SWAP1 PUSH2 0x245 SWAP2 SWAP1 PUSH2 0x1227 JUMP JUMPDEST PUSH2 0x958 JUMP JUMPDEST PUSH1 0x40 MLOAD PUSH2 0x257 SWAP2 SWAP1 PUSH2 0xE68 JUMP JUMPDEST PUSH1 0x40 MLOAD DUP1 SWAP2 SUB SWAP1 RETURN JUMPDEST PUSH2 0x268 PUSH2 0xA52 JUMP JUMPDEST PUSH1 0x40 MLOAD PUSH2 0x275 SWAP2 SWAP1 PUSH2 0x10F9 JUMP JUMPDEST PUSH1 0x40 MLOAD DUP1 SWAP2 SUB SWAP1 RETURN JUMPDEST PUSH1 0x1 SLOAD DUP2 JUMP JUMPDEST PUSH1 0x0 SLOAD DUP2 JUMP JUMPDEST PUSH1 0x0 DUP1 PUSH1 0x3 DUP2 GT ISZERO PUSH2 0x29F JUMPI PUSH2 0x29E PUSH2 0x1026 JUMP JUMPDEST JUMPDEST PUSH1 0xB PUSH1 0x0 SWAP1 SLOAD SWAP1 PUSH2 0x100 EXP SWAP1 DIV PUSH1 0xFF AND PUSH1 0x3 DUP2 GT ISZERO PUSH2 0x2C1 JUMPI PUSH2 0x2C0 PUSH2 0x1026 JUMP JUMPDEST JUMPDEST EQ ISZERO DUP1 ISZERO PUSH2 0x303 JUMPI POP PUSH1 0x0 PUSH1 0x3 DUP2 GT ISZERO PUSH2 0x2DE JUMPI PUSH2 0x2DD PUSH2 0x1026 JUMP JUMPDEST JUMPDEST PUSH1 0xB PUSH1 0x1 SWAP1 SLOAD SWAP1 PUSH2 0x100 EXP SWAP1 DIV PUSH1 0xFF AND PUSH1 0x3 DUP2 GT ISZERO PUSH2 0x300 JUMPI PUSH2 0x2FF PUSH2 0x1026 JUMP JUMPDEST JUMPDEST EQ ISZERO JUMPDEST SWAP1 POP SWAP1 JUMP JUMPDEST PUSH1 0x0 DUP1 PUSH1 0x0 SHL PUSH1 0x9 SLOAD EQ ISZERO DUP1 ISZERO PUSH2 0x324 JUMPI POP PUSH1 0x0 DUP1 SHL PUSH1 0xA SLOAD EQ ISZERO JUMPDEST PUSH2 0x32D JUMPI PUSH1 0x0 DUP1 REVERT JUMPDEST PUSH1 0x0 PUSH1 0x2 DUP4 PUSH1 0x40 MLOAD PUSH1 0x20 ADD PUSH2 0x342 SWAP2 SWAP1 PUSH2 0x12CE JUMP JUMPDEST PUSH1 0x40 MLOAD PUSH1 0x20 DUP2 DUP4 SUB SUB DUP2 MSTORE SWAP1 PUSH1 0x40 MSTORE PUSH1 0x40 MLOAD PUSH2 0x35E SWAP2 SWAP1 PUSH2 0x132C JUMP JUMPDEST PUSH1 0x20 PUSH1 0x40 MLOAD DUP1 DUP4 SUB DUP2 DUP6 GAS STATICCALL ISZERO DUP1 ISZERO PUSH2 0x37B JUMPI RETURNDATASIZE PUSH1 0x0 DUP1 RETURNDATACOPY RETURNDATASIZE PUSH1 0x0 REVERT JUMPDEST POP POP POP PUSH1 0x40 MLOAD RETURNDATASIZE PUSH1 0x1F NOT PUSH1 0x1F DUP3 ADD AND DUP3 ADD DUP1 PUSH1 0x40 MSTORE POP DUP2 ADD SWAP1 PUSH2 0x39E SWAP2 SWAP1 PUSH2 0x1358 JUMP JUMPDEST SWAP1 POP PUSH1 0x0 PUSH2 0x3AB DUP5 PUSH2 0xA78 JUMP JUMPDEST PUSH1 0x3 DUP2 GT ISZERO PUSH2 0x3BD JUMPI PUSH2 0x3BC PUSH2 0x1026 JUMP JUMPDEST JUMPDEST SWAP1 POP PUSH1 0x0 PUSH1 0x3 DUP2 GT ISZERO PUSH2 0x3D3 JUMPI PUSH2 0x3D2 PUSH2 0x1026 JUMP JUMPDEST JUMPDEST DUP2 PUSH1 0x3 DUP2 GT ISZERO PUSH2 0x3E6 JUMPI PUSH2 0x3E5 PUSH2 0x1026 JUMP JUMPDEST JUMPDEST EQ ISZERO PUSH2 0x3F7 JUMPI PUSH1 0x0 SWAP3 POP POP POP PUSH2 0x540 JUMP JUMPDEST PUSH1 0x5 PUSH1 0x0 SWAP1 SLOAD SWAP1 PUSH2 0x100 EXP SWAP1 DIV PUSH20 0xFFFFFFFFFFFFFFFFFFFFFFFFFFFFFFFFFFFFFFFF AND PUSH20 0xFFFFFFFFFFFFFFFFFFFFFFFFFFFFFFFFFFFFFFFF AND CALLER PUSH20 0xFFFFFFFFFFFFFFFFFFFFFFFFFFFFFFFFFFFFFFFF AND EQ DUP1 ISZERO PUSH2 0x455 JUMPI POP PUSH1 0x9 SLOAD DUP3 EQ JUMPDEST ISZERO PUSH2 0x489 JUMPI DUP1 PUSH1 0xB PUSH1 0x0 PUSH2 0x100 EXP DUP2 SLOAD DUP2 PUSH1 0xFF MUL NOT AND SWAP1 DUP4 PUSH1 0x3 DUP2 GT ISZERO PUSH2 0x47F JUMPI PUSH2 0x47E PUSH2 0x1026 JUMP JUMPDEST JUMPDEST MUL OR SWAP1 SSTORE POP PUSH2 0x527 JUMP JUMPDEST PUSH1 0x6 PUSH1 0x0 SWAP1 SLOAD SWAP1 PUSH2 0x100 EXP SWAP1 DIV PUSH20 0xFFFFFFFFFFFFFFFFFFFFFFFFFFFFFFFFFFFFFFFF AND PUSH20 0xFFFFFFFFFFFFFFFFFFFFFFFFFFFFFFFFFFFFFFFF AND CALLER PUSH20 0xFFFFFFFFFFFFFFFFFFFFFFFFFFFFFFFFFFFFFFFF AND EQ DUP1 ISZERO PUSH2 0x4E7 JUMPI POP PUSH1 0xA SLOAD DUP3 EQ JUMPDEST ISZERO PUSH2 0x51B JUMPI DUP1 PUSH1 0xB PUSH1 0x1 PUSH2 0x100 EXP DUP2 SLOAD DUP2 PUSH1 0xFF MUL NOT AND SWAP1 DUP4 PUSH1 0x3 DUP2 GT ISZERO PUSH2 0x511 JUMPI PUSH2 0x510 PUSH2 0x1026 JUMP JUMPDEST JUMPDEST MUL OR SWAP1 SSTORE POP PUSH2 0x526 JUMP JUMPDEST PUSH1 0x0 SWAP3 POP POP POP PUSH2 0x540 JUMP JUMPDEST JUMPDEST PUSH1 0x0 PUSH1 0x3 SLOAD EQ ISZERO PUSH2 0x53A JUMPI TIMESTAMP PUSH1 0x3 DUP2 SWAP1 SSTORE POP JUMPDEST DUP1 SWAP3 POP POP POP JUMPDEST SWAP2 SWAP1 POP JUMP JUMPDEST PUSH1 0x2 SLOAD DUP2 JUMP JUMPDEST PUSH1 0x5 PUSH1 0x0 SWAP1 SLOAD SWAP1 PUSH2 0x100 EXP SWAP1 DIV PUSH20 0xFFFFFFFFFFFFFFFFFFFFFFFFFFFFFFFFFFFFFFFF AND DUP2 JUMP JUMPDEST PUSH1 0x0 SELFBALANCE SWAP1 POP SWAP1 JUMP JUMPDEST PUSH1 0x0 DUP1 PUSH1 0x3 DUP2 GT ISZERO PUSH2 0x58E JUMPI PUSH2 0x58D PUSH2 0x1026 JUMP JUMPDEST JUMPDEST PUSH1 0xB PUSH1 0x0 SWAP1 SLOAD SWAP1 PUSH2 0x100 EXP SWAP1 DIV PUSH1 0xFF AND PUSH1 0x3 DUP2 GT ISZERO PUSH2 0x5B0 JUMPI PUSH2 0x5AF PUSH2 0x1026 JUMP JUMPDEST JUMPDEST EQ ISZERO DUP1 ISZERO PUSH2 0x5F2 JUMPI POP PUSH1 0x0 PUSH1 0x3 DUP2 GT ISZERO PUSH2 0x5CD JUMPI PUSH2 0x5CC PUSH2 0x1026 JUMP JUMPDEST JUMPDEST PUSH1 0xB PUSH1 0x1 SWAP1 SLOAD SWAP1 PUSH2 0x100 EXP SWAP1 DIV PUSH1 0xFF AND PUSH1 0x3 DUP2 GT ISZERO PUSH2 0x5EF JUMPI PUSH2 0x5EE PUSH2 0x1026 JUMP JUMPDEST JUMPDEST EQ ISZERO JUMPDEST DUP1 PUSH2 0x61A JUMPI POP PUSH1 0x0 PUSH1 0x3 SLOAD EQ ISZERO DUP1 ISZERO PUSH2 0x619 JUMPI POP PUSH1 0x4 SLOAD PUSH1 0x3 SLOAD PUSH2 0x616 SWAP2 SWAP1 PUSH2 0x13B4 JUMP JUMPDEST TIMESTAMP GT JUMPDEST JUMPDEST PUSH2 0x623 JUMPI PUSH1 0x0 DUP1 REVERT JUMPDEST PUSH1 0x0 PUSH1 0xB PUSH1 0x1 SWAP1 SLOAD SWAP1 PUSH2 0x100 EXP SWAP1 DIV PUSH1 0xFF AND PUSH1 0x3 DUP2 GT ISZERO PUSH2 0x647 JUMPI PUSH2 0x646 PUSH2 0x1026 JUMP JUMPDEST JUMPDEST PUSH1 0xB PUSH1 0x0 SWAP1 SLOAD SWAP1 PUSH2 0x100 EXP SWAP1 DIV PUSH1 0xFF AND PUSH1 0x3 DUP2 GT ISZERO PUSH2 0x669 JUMPI PUSH2 0x668 PUSH2 0x1026 JUMP JUMPDEST JUMPDEST EQ ISZERO PUSH2 0x678 JUMPI PUSH1 0x3 SWAP1 POP PUSH2 0x878 JUMP JUMPDEST PUSH1 0x1 PUSH1 0x3 DUP2 GT ISZERO PUSH2 0x68C JUMPI PUSH2 0x68B PUSH2 0x1026 JUMP JUMPDEST JUMPDEST PUSH1 0xB PUSH1 0x0 SWAP1 SLOAD SWAP1 PUSH2 0x100 EXP SWAP1 DIV PUSH1 0xFF AND PUSH1 0x3 DUP2 GT ISZERO PUSH2 0x6AE JUMPI PUSH2 0x6AD PUSH2 0x1026 JUMP JUMPDEST JUMPDEST EQ DUP1 ISZERO PUSH2 0x6ED JUMPI POP PUSH1 0x3 DUP1 DUP2 GT ISZERO PUSH2 0x6C9 JUMPI PUSH2 0x6C8 PUSH2 0x1026 JUMP JUMPDEST JUMPDEST PUSH1 0xB PUSH1 0x1 SWAP1 SLOAD SWAP1 PUSH2 0x100 EXP SWAP1 DIV PUSH1 0xFF AND PUSH1 0x3 DUP2 GT ISZERO PUSH2 0x6EB JUMPI PUSH2 0x6EA PUSH2 0x1026 JUMP JUMPDEST JUMPDEST EQ JUMPDEST DUP1 PUSH2 0x76A JUMPI POP PUSH1 0x2 PUSH1 0x3 DUP2 GT ISZERO PUSH2 0x707 JUMPI PUSH2 0x706 PUSH2 0x1026 JUMP JUMPDEST JUMPDEST PUSH1 0xB PUSH1 0x0 SWAP1 SLOAD SWAP1 PUSH2 0x100 EXP SWAP1 DIV PUSH1 0xFF AND PUSH1 0x3 DUP2 GT ISZERO PUSH2 0x729 JUMPI PUSH2 0x728 PUSH2 0x1026 JUMP JUMPDEST JUMPDEST EQ DUP1 ISZERO PUSH2 0x769 JUMPI POP PUSH1 0x1 PUSH1 0x3 DUP2 GT ISZERO PUSH2 0x745 JUMPI PUSH2 0x744 PUSH2 0x1026 JUMP JUMPDEST JUMPDEST PUSH1 0xB PUSH1 0x1 SWAP1 SLOAD SWAP1 PUSH2 0x100 EXP SWAP1 DIV PUSH1 0xFF AND PUSH1 0x3 DUP2 GT ISZERO PUSH2 0x767 JUMPI PUSH2 0x766 PUSH2 0x1026 JUMP JUMPDEST JUMPDEST EQ JUMPDEST JUMPDEST DUP1 PUSH2 0x7E6 JUMPI POP PUSH1 0x3 DUP1 DUP2 GT ISZERO PUSH2 0x783 JUMPI PUSH2 0x782 PUSH2 0x1026 JUMP JUMPDEST JUMPDEST PUSH1 0xB PUSH1 0x0 SWAP1 SLOAD SWAP1 PUSH2 0x100 EXP SWAP1 DIV PUSH1 0xFF AND PUSH1 0x3 DUP2 GT ISZERO PUSH2 0x7A5 JUMPI PUSH2 0x7A4 PUSH2 0x1026 JUMP JUMPDEST JUMPDEST EQ DUP1 ISZERO PUSH2 0x7E5 JUMPI POP PUSH1 0x2 PUSH1 0x3 DUP2 GT ISZERO PUSH2 0x7C1 JUMPI PUSH2 0x7C0 PUSH2 0x1026 JUMP JUMPDEST JUMPDEST PUSH1 0xB PUSH1 0x1 SWAP1 SLOAD SWAP1 PUSH2 0x100 EXP SWAP1 DIV PUSH1 0xFF AND PUSH1 0x3 DUP2 GT ISZERO PUSH2 0x7E3 JUMPI PUSH2 0x7E2 PUSH2 0x1026 JUMP JUMPDEST JUMPDEST EQ JUMPDEST JUMPDEST DUP1 PUSH2 0x864 JUMPI POP PUSH1 0x0 PUSH1 0x3 DUP2 GT ISZERO PUSH2 0x800 JUMPI PUSH2 0x7FF PUSH2 0x1026 JUMP JUMPDEST JUMPDEST PUSH1 0xB PUSH1 0x0 SWAP1 SLOAD SWAP1 PUSH2 0x100 EXP SWAP1 DIV PUSH1 0xFF AND PUSH1 0x3 DUP2 GT ISZERO PUSH2 0x822 JUMPI PUSH2 0x821 PUSH2 0x1026 JUMP JUMPDEST JUMPDEST EQ ISZERO DUP1 ISZERO PUSH2 0x863 JUMPI POP PUSH1 0x0 PUSH1 0x3 DUP2 GT ISZERO PUSH2 0x83F JUMPI PUSH2 0x83E PUSH2 0x1026 JUMP JUMPDEST JUMPDEST PUSH1 0xB PUSH1 0x1 SWAP1 SLOAD SWAP1 PUSH2 0x100 EXP SWAP1 DIV PUSH1 0xFF AND PUSH1 0x3 DUP2 GT ISZERO PUSH2 0x861 JUMPI PUSH2 0x860 PUSH2 0x1026 JUMP JUMPDEST JUMPDEST EQ JUMPDEST JUMPDEST ISZERO PUSH2 0x872 JUMPI PUSH1 0x1 SWAP1 POP PUSH2 0x877 JUMP JUMPDEST PUSH1 0x2 SWAP1 POP JUMPDEST JUMPDEST PUSH1 0x0 PUSH1 0x5 PUSH1 0x0 SWAP1 SLOAD SWAP1 PUSH2 0x100 EXP SWAP1 DIV PUSH20 0xFFFFFFFFFFFFFFFFFFFFFFFFFFFFFFFFFFFFFFFF AND SWAP1 POP PUSH1 0x0 PUSH1 0x6 PUSH1 0x0 SWAP1 SLOAD SWAP1 PUSH2 0x100 EXP SWAP1 DIV PUSH20 0xFFFFFFFFFFFFFFFFFFFFFFFFFFFFFFFFFFFFFFFF AND SWAP1 POP PUSH1 0x0 PUSH1 0x1 SLOAD SWAP1 POP PUSH2 0x8D5 PUSH2 0xB4F JUMP JUMPDEST PUSH2 0x8E1 DUP4 DUP4 DUP4 DUP8 PUSH2 0xC91 JUMP JUMPDEST DUP4 SWAP5 POP POP POP POP POP SWAP1 JUMP JUMPDEST PUSH1 0x0 DUP1 PUSH1 0x0 SHL PUSH1 0x9 SLOAD EQ ISZERO DUP1 ISZERO PUSH2 0x907 JUMPI POP PUSH1 0x0 DUP1 SHL PUSH1 0xA SLOAD EQ ISZERO JUMPDEST SWAP1 POP SWAP1 JUMP JUMPDEST PUSH1 0x6 PUSH1 0x0 SWAP1 SLOAD SWAP1 PUSH2 0x100 EXP SWAP1 DIV PUSH20 0xFFFFFFFFFFFFFFFFFFFFFFFFFFFFFFFFFFFFFFFF AND DUP2 JUMP JUMPDEST PUSH1 0x8 PUSH1 0x0 SWAP1 SLOAD SWAP1 PUSH2 0x100 EXP SWAP1 DIV PUSH20 0xFFFFFFFFFFFFFFFFFFFFFFFFFFFFFFFFFFFFFFFF AND DUP2 JUMP JUMPDEST PUSH1 0x0 PUSH1 0x5 PUSH1 0x0 SWAP1 SLOAD SWAP1 PUSH2 0x100 EXP SWAP1 DIV PUSH20 0xFFFFFFFFFFFFFFFFFFFFFFFFFFFFFFFFFFFFFFFF AND PUSH20 0xFFFFFFFFFFFFFFFFFFFFFFFFFFFFFFFFFFFFFFFF AND CALLER PUSH20 0xFFFFFFFFFFFFFFFFFFFFFFFFFFFFFFFFFFFFFFFF AND EQ DUP1 ISZERO PUSH2 0x9BB JUMPI POP PUSH1 0x0 DUP1 SHL PUSH1 0x9 SLOAD EQ JUMPDEST ISZERO PUSH2 0x9CC JUMPI DUP2 PUSH1 0x9 DUP2 SWAP1 SSTORE POP PUSH2 0xA48 JUMP JUMPDEST PUSH1 0x6 PUSH1 0x0 SWAP1 SLOAD SWAP1 PUSH2 0x100 EXP SWAP1 DIV PUSH20 0xFFFFFFFFFFFFFFFFFFFFFFFFFFFFFFFFFFFFFFFF AND PUSH20 0xFFFFFFFFFFFFFFFFFFFFFFFFFFFFFFFFFFFFFFFF AND CALLER PUSH20 0xFFFFFFFFFFFFFFFFFFFFFFFFFFFFFFFFFFFFFFFF AND EQ DUP1 ISZERO PUSH2 0xA2D JUMPI POP PUSH1 0x0 DUP1 SHL PUSH1 0xA SLOAD EQ JUMPDEST ISZERO PUSH2 0xA3E JUMPI DUP2 PUSH1 0xA DUP2 SWAP1 SSTORE POP PUSH2 0xA47 JUMP JUMPDEST PUSH1 0x0 SWAP1 POP PUSH2 0xA4D JUMP JUMPDEST JUMPDEST PUSH1 0x1 SWAP1 POP JUMPDEST SWAP2 SWAP1 POP JUMP JUMPDEST PUSH1 0x7 PUSH1 0x0 SWAP1 SLOAD SWAP1 PUSH2 0x100 EXP SWAP1 DIV PUSH20 0xFFFFFFFFFFFFFFFFFFFFFFFFFFFFFFFFFFFFFFFF AND DUP2 JUMP JUMPDEST PUSH1 0x0 DUP1 DUP3 PUSH1 0x0 DUP2 MLOAD DUP2 LT PUSH2 0xA8F JUMPI PUSH2 0xA8E PUSH2 0x140A JUMP JUMPDEST JUMPDEST PUSH1 0x20 ADD ADD MLOAD PUSH1 0xF8 SHR PUSH1 0xF8 SHL SWAP1 POP PUSH1 0x31 PUSH1 0xF8 SHL DUP2 PUSH31 0xFFFFFFFFFFFFFFFFFFFFFFFFFFFFFFFFFFFFFFFFFFFFFFFFFFFFFFFFFFFFFF NOT AND EQ ISZERO PUSH2 0xAD4 JUMPI PUSH1 0x1 SWAP2 POP POP PUSH2 0xB4A JUMP JUMPDEST PUSH1 0x32 PUSH1 0xF8 SHL DUP2 PUSH31 0xFFFFFFFFFFFFFFFFFFFFFFFFFFFFFFFFFFFFFFFFFFFFFFFFFFFFFFFFFFFFFF NOT AND EQ ISZERO PUSH2 0xB0C JUMPI PUSH1 0x2 SWAP2 POP POP PUSH2 0xB4A JUMP JUMPDEST PUSH1 0x33 PUSH1 0xF8 SHL DUP2 PUSH31 0xFFFFFFFFFFFFFFFFFFFFFFFFFFFFFFFFFFFFFFFFFFFFFFFFFFFFFFFFFFFFFF NOT AND EQ ISZERO PUSH2 0xB44 JUMPI PUSH1 0x3 SWAP2 POP POP PUSH2 0xB4A JUMP JUMPDEST PUSH1 0x0 SWAP2 POP POP JUMPDEST SWAP2 SWAP1 POP JUMP JUMPDEST PUSH1 0x0 PUSH1 0x1 DUP2 SWAP1 SSTORE POP PUSH1 0x0 PUSH1 0x3 DUP2 SWAP1 SSTORE POP PUSH1 0x7 PUSH1 0x0 SWAP1 SLOAD SWAP1 PUSH2 0x100 EXP SWAP1 DIV PUSH20 0xFFFFFFFFFFFFFFFFFFFFFFFFFFFFFFFFFFFFFFFF AND PUSH1 0x5 PUSH1 0x0 PUSH2 0x100 EXP DUP2 SLOAD DUP2 PUSH20 0xFFFFFFFFFFFFFFFFFFFFFFFFFFFFFFFFFFFFFFFF MUL NOT AND SWAP1 DUP4 PUSH20 0xFFFFFFFFFFFFFFFFFFFFFFFFFFFFFFFFFFFFFFFF AND MUL OR SWAP1 SSTORE POP PUSH1 0x7 PUSH1 0x0 SWAP1 SLOAD SWAP1 PUSH2 0x100 EXP SWAP1 DIV PUSH20 0xFFFFFFFFFFFFFFFFFFFFFFFFFFFFFFFFFFFFFFFF AND PUSH1 0x6 PUSH1 0x0 PUSH2 0x100 EXP DUP2 SLOAD DUP2 PUSH20 0xFFFFFFFFFFFFFFFFFFFFFFFFFFFFFFFFFFFFFFFF MUL NOT AND SWAP1 DUP4 PUSH20 0xFFFFFFFFFFFFFFFFFFFFFFFFFFFFFFFFFFFFFFFF AND MUL OR SWAP1 SSTORE POP PUSH1 0x0 DUP1 SHL PUSH1 0x9 DUP2 SWAP1 SSTORE POP PUSH1 0x0 DUP1 SHL PUSH1 0xA DUP2 SWAP1 SSTORE POP PUSH1 0x0 PUSH1 0xB PUSH1 0x0 PUSH2 0x100 EXP DUP2 SLOAD DUP2 PUSH1 0xFF MUL NOT AND SWAP1 DUP4 PUSH1 0x3 DUP2 GT ISZERO PUSH2 0xC5F JUMPI PUSH2 0xC5E PUSH2 0x1026 JUMP JUMPDEST JUMPDEST MUL OR SWAP1 SSTORE POP PUSH1 0x0 PUSH1 0xB PUSH1 0x1 PUSH2 0x100 EXP DUP2 SLOAD DUP2 PUSH1 0xFF MUL NOT AND SWAP1 DUP4 PUSH1 0x3 DUP2 GT ISZERO PUSH2 0xC8A JUMPI PUSH2 0xC89 PUSH2 0x1026 JUMP JUMPDEST JUMPDEST MUL OR SWAP1 SSTORE POP JUMP JUMPDEST PUSH1 0x1 PUSH1 0x3 DUP2 GT ISZERO PUSH2 0xCA5 JUMPI PUSH2 0xCA4 PUSH2 0x1026 JUMP JUMPDEST JUMPDEST DUP2 PUSH1 0x3 DUP2 GT ISZERO PUSH2 0xCB8 JUMPI PUSH2 0xCB7 PUSH2 0x1026 JUMP JUMPDEST JUMPDEST EQ ISZERO PUSH2 0xD0A JUMPI DUP4 PUSH20 0xFFFFFFFFFFFFFFFFFFFFFFFFFFFFFFFFFFFFFFFF AND PUSH2 0x8FC SELFBALANCE SWAP1 DUP2 ISZERO MUL SWAP1 PUSH1 0x40 MLOAD PUSH1 0x0 PUSH1 0x40 MLOAD DUP1 DUP4 SUB DUP2 DUP6 DUP9 DUP9 CALL SWAP4 POP POP POP POP ISZERO DUP1 ISZERO PUSH2 0xD04 JUMPI RETURNDATASIZE PUSH1 0x0 DUP1 RETURNDATACOPY RETURNDATASIZE PUSH1 0x0 REVERT JUMPDEST POP PUSH2 0xE13 JUMP JUMPDEST PUSH1 0x2 PUSH1 0x3 DUP2 GT ISZERO PUSH2 0xD1E JUMPI PUSH2 0xD1D PUSH2 0x1026 JUMP JUMPDEST JUMPDEST DUP2 PUSH1 0x3 DUP2 GT ISZERO PUSH2 0xD31 JUMPI PUSH2 0xD30 PUSH2 0x1026 JUMP JUMPDEST JUMPDEST EQ ISZERO PUSH2 0xD83 JUMPI DUP3 PUSH20 0xFFFFFFFFFFFFFFFFFFFFFFFFFFFFFFFFFFFFFFFF AND PUSH2 0x8FC SELFBALANCE SWAP1 DUP2 ISZERO MUL SWAP1 PUSH1 0x40 MLOAD PUSH1 0x0 PUSH1 0x40 MLOAD DUP1 DUP4 SUB DUP2 DUP6 DUP9 DUP9 CALL SWAP4 POP POP POP POP ISZERO DUP1 ISZERO PUSH2 0xD7D JUMPI RETURNDATASIZE PUSH1 0x0 DUP1 RETURNDATACOPY RETURNDATASIZE PUSH1 0x0 REVERT JUMPDEST POP PUSH2 0xE12 JUMP JUMPDEST DUP4 PUSH20 0xFFFFFFFFFFFFFFFFFFFFFFFFFFFFFFFFFFFFFFFF AND PUSH2 0x8FC DUP4 SWAP1 DUP2 ISZERO MUL SWAP1 PUSH1 0x40 MLOAD PUSH1 0x0 PUSH1 0x40 MLOAD DUP1 DUP4 SUB DUP2 DUP6 DUP9 DUP9 CALL SWAP4 POP POP POP POP ISZERO DUP1 ISZERO PUSH2 0xDC9 JUMPI RETURNDATASIZE PUSH1 0x0 DUP1 RETURNDATACOPY RETURNDATASIZE PUSH1 0x0 REVERT JUMPDEST POP DUP3 PUSH20 0xFFFFFFFFFFFFFFFFFFFFFFFFFFFFFFFFFFFFFFFF AND PUSH2 0x8FC SELFBALANCE SWAP1 DUP2 ISZERO MUL SWAP1 PUSH1 0x40 MLOAD PUSH1 0x0 PUSH1 0x40 MLOAD DUP1 DUP4 SUB DUP2 DUP6 DUP9 DUP9 CALL SWAP4 POP POP POP POP ISZERO DUP1 ISZERO PUSH2 0xE10 JUMPI RETURNDATASIZE PUSH1 0x0 DUP1 RETURNDATACOPY RETURNDATASIZE PUSH1 0x0 REVERT JUMPDEST POP JUMPDEST JUMPDEST POP POP POP POP JUMP JUMPDEST PUSH1 0x0 DUP2 SWAP1 POP SWAP2 SWAP1 POP JUMP JUMPDEST PUSH2 0xE2C DUP2 PUSH2 0xE19 JUMP JUMPDEST DUP3 MSTORE POP POP JUMP JUMPDEST PUSH1 0x0 PUSH1 0x20 DUP3 ADD SWAP1 POP PUSH2 0xE47 PUSH1 0x0 DUP4 ADD DUP5 PUSH2 0xE23 JUMP JUMPDEST SWAP3 SWAP2 POP POP JUMP JUMPDEST PUSH1 0x0 DUP2 ISZERO ISZERO SWAP1 POP SWAP2 SWAP1 POP JUMP JUMPDEST PUSH2 0xE62 DUP2 PUSH2 0xE4D JUMP JUMPDEST DUP3 MSTORE POP POP JUMP JUMPDEST PUSH1 0x0 PUSH1 0x20 DUP3 ADD SWAP1 POP PUSH2 0xE7D PUSH1 0x0 DUP4 ADD DUP5 PUSH2 0xE59 JUMP JUMPDEST SWAP3 SWAP2 POP POP JUMP JUMPDEST PUSH1 0x0 PUSH1 0x40 MLOAD SWAP1 POP SWAP1 JUMP JUMPDEST PUSH1 0x0 DUP1 REVERT JUMPDEST PUSH1 0x0 DUP1 REVERT JUMPDEST PUSH1 0x0 DUP1 REVERT JUMPDEST PUSH1 0x0 DUP1 REVERT JUMPDEST PUSH1 0x0 PUSH1 0x1F NOT PUSH1 0x1F DUP4 ADD AND SWAP1 POP SWAP2 SWAP1 POP JUMP JUMPDEST PUSH32 0x4E487B7100000000000000000000000000000000000000000000000000000000 PUSH1 0x0 MSTORE PUSH1 0x41 PUSH1 0x4 MSTORE PUSH1 0x24 PUSH1 0x0 REVERT JUMPDEST PUSH2 0xEEA DUP3 PUSH2 0xEA1 JUMP JUMPDEST DUP2 ADD DUP2 DUP2 LT PUSH8 0xFFFFFFFFFFFFFFFF DUP3 GT OR ISZERO PUSH2 0xF09 JUMPI PUSH2 0xF08 PUSH2 0xEB2 JUMP JUMPDEST JUMPDEST DUP1 PUSH1 0x40 MSTORE POP POP POP JUMP JUMPDEST PUSH1 0x0 PUSH2 0xF1C PUSH2 0xE83 JUMP JUMPDEST SWAP1 POP PUSH2 0xF28 DUP3 DUP3 PUSH2 0xEE1 JUMP JUMPDEST SWAP2 SWAP1 POP JUMP JUMPDEST PUSH1 0x0 PUSH8 0xFFFFFFFFFFFFFFFF DUP3 GT ISZERO PUSH2 0xF48 JUMPI PUSH2 0xF47 PUSH2 0xEB2 JUMP JUMPDEST JUMPDEST PUSH2 0xF51 DUP3 PUSH2 0xEA1 JUMP JUMPDEST SWAP1 POP PUSH1 0x20 DUP2 ADD SWAP1 POP SWAP2 SWAP1 POP JUMP JUMPDEST DUP3 DUP2 DUP4 CALLDATACOPY PUSH1 0x0 DUP4 DUP4 ADD MSTORE POP POP POP JUMP JUMPDEST PUSH1 0x0 PUSH2 0xF80 PUSH2 0xF7B DUP5 PUSH2 0xF2D JUMP JUMPDEST PUSH2 0xF12 JUMP JUMPDEST SWAP1 POP DUP3 DUP2 MSTORE PUSH1 0x20 DUP2 ADD DUP5 DUP5 DUP5 ADD GT ISZERO PUSH2 0xF9C JUMPI PUSH2 0xF9B PUSH2 0xE9C JUMP JUMPDEST JUMPDEST PUSH2 0xFA7 DUP5 DUP3 DUP6 PUSH2 0xF5E JUMP JUMPDEST POP SWAP4 SWAP3 POP POP POP JUMP JUMPDEST PUSH1 0x0 DUP3 PUSH1 0x1F DUP4 ADD SLT PUSH2 0xFC4 JUMPI PUSH2 0xFC3 PUSH2 0xE97 JUMP JUMPDEST JUMPDEST DUP2 CALLDATALOAD PUSH2 0xFD4 DUP5 DUP3 PUSH1 0x20 DUP7 ADD PUSH2 0xF6D JUMP JUMPDEST SWAP2 POP POP SWAP3 SWAP2 POP POP JUMP JUMPDEST PUSH1 0x0 PUSH1 0x20 DUP3 DUP5 SUB SLT ISZERO PUSH2 0xFF3 JUMPI PUSH2 0xFF2 PUSH2 0xE8D JUMP JUMPDEST JUMPDEST PUSH1 0x0 DUP3 ADD CALLDATALOAD PUSH8 0xFFFFFFFFFFFFFFFF DUP2 GT ISZERO PUSH2 0x1011 JUMPI PUSH2 0x1010 PUSH2 0xE92 JUMP JUMPDEST JUMPDEST PUSH2 0x101D DUP5 DUP3 DUP6 ADD PUSH2 0xFAF JUMP JUMPDEST SWAP2 POP POP SWAP3 SWAP2 POP POP JUMP JUMPDEST PUSH32 0x4E487B7100000000000000000000000000000000000000000000000000000000 PUSH1 0x0 MSTORE PUSH1 0x21 PUSH1 0x4 MSTORE PUSH1 0x24 PUSH1 0x0 REVERT JUMPDEST PUSH1 0x4 DUP2 LT PUSH2 0x1066 JUMPI PUSH2 0x1065 PUSH2 0x1026 JUMP JUMPDEST JUMPDEST POP JUMP JUMPDEST PUSH1 0x0 DUP2 SWAP1 POP PUSH2 0x1077 DUP3 PUSH2 0x1055 JUMP JUMPDEST SWAP2 SWAP1 POP JUMP JUMPDEST PUSH1 0x0 PUSH2 0x1087 DUP3 PUSH2 0x1069 JUMP JUMPDEST SWAP1 POP SWAP2 SWAP1 POP JUMP JUMPDEST PUSH2 0x1097 DUP2 PUSH2 0x107C JUMP JUMPDEST DUP3 MSTORE POP POP JUMP JUMPDEST PUSH1 0x0 PUSH1 0x20 DUP3 ADD SWAP1 POP PUSH2 0x10B2 PUSH1 0x0 DUP4 ADD DUP5 PUSH2 0x108E JUMP JUMPDEST SWAP3 SWAP2 POP POP JUMP JUMPDEST PUSH1 0x0 PUSH20 0xFFFFFFFFFFFFFFFFFFFFFFFFFFFFFFFFFFFFFFFF DUP3 AND SWAP1 POP SWAP2 SWAP1 POP JUMP JUMPDEST PUSH1 0x0 PUSH2 0x10E3 DUP3 PUSH2 0x10B8 JUMP JUMPDEST SWAP1 POP SWAP2 SWAP1 POP JUMP JUMPDEST PUSH2 0x10F3 DUP2 PUSH2 0x10D8 JUMP JUMPDEST DUP3 MSTORE POP POP JUMP JUMPDEST PUSH1 0x0 PUSH1 0x20 DUP3 ADD SWAP1 POP PUSH2 0x110E PUSH1 0x0 DUP4 ADD DUP5 PUSH2 0x10EA JUMP JUMPDEST SWAP3 SWAP2 POP POP JUMP JUMPDEST PUSH1 0x4 DUP2 LT PUSH2 0x1125 JUMPI PUSH2 0x1124 PUSH2 0x1026 JUMP JUMPDEST JUMPDEST POP JUMP JUMPDEST PUSH1 0x0 DUP2 SWAP1 POP PUSH2 0x1136 DUP3 PUSH2 0x1114 JUMP JUMPDEST SWAP2 SWAP1 POP JUMP JUMPDEST PUSH1 0x0 PUSH2 0x1146 DUP3 PUSH2 0x1128 JUMP JUMPDEST SWAP1 POP SWAP2 SWAP1 POP JUMP JUMPDEST PUSH2 0x1156 DUP2 PUSH2 0x113B JUMP JUMPDEST DUP3 MSTORE POP POP JUMP JUMPDEST PUSH1 0x0 PUSH1 0x20 DUP3 ADD SWAP1 POP PUSH2 0x1171 PUSH1 0x0 DUP4 ADD DUP5 PUSH2 0x114D JUMP JUMPDEST SWAP3 SWAP2 POP POP JUMP JUMPDEST PUSH1 0x0 DUP2 SWAP1 POP SWAP2 SWAP1 POP JUMP JUMPDEST PUSH1 0x0 PUSH2 0x119C PUSH2 0x1197 PUSH2 0x1192 DUP5 PUSH2 0x10B8 JUMP JUMPDEST PUSH2 0x1177 JUMP JUMPDEST PUSH2 0x10B8 JUMP JUMPDEST SWAP1 POP SWAP2 SWAP1 POP JUMP JUMPDEST PUSH1 0x0 PUSH2 0x11AE DUP3 PUSH2 0x1181 JUMP JUMPDEST SWAP1 POP SWAP2 SWAP1 POP JUMP JUMPDEST PUSH1 0x0 PUSH2 0x11C0 DUP3 PUSH2 0x11A3 JUMP JUMPDEST SWAP1 POP SWAP2 SWAP1 POP JUMP JUMPDEST PUSH2 0x11D0 DUP2 PUSH2 0x11B5 JUMP JUMPDEST DUP3 MSTORE POP POP JUMP JUMPDEST PUSH1 0x0 PUSH1 0x20 DUP3 ADD SWAP1 POP PUSH2 0x11EB PUSH1 0x0 DUP4 ADD DUP5 PUSH2 0x11C7 JUMP JUMPDEST SWAP3 SWAP2 POP POP JUMP JUMPDEST PUSH1 0x0 DUP2 SWAP1 POP SWAP2 SWAP1 POP JUMP JUMPDEST PUSH2 0x1204 DUP2 PUSH2 0x11F1 JUMP JUMPDEST DUP2 EQ PUSH2 0x120F JUMPI PUSH1 0x0 DUP1 REVERT JUMPDEST POP JUMP JUMPDEST PUSH1 0x0 DUP2 CALLDATALOAD SWAP1 POP PUSH2 0x1221 DUP2 PUSH2 0x11FB JUMP JUMPDEST SWAP3 SWAP2 POP POP JUMP JUMPDEST PUSH1 0x0 PUSH1 0x20 DUP3 DUP5 SUB SLT ISZERO PUSH2 0x123D JUMPI PUSH2 0x123C PUSH2 0xE8D JUMP JUMPDEST JUMPDEST PUSH1 0x0 PUSH2 0x124B DUP5 DUP3 DUP6 ADD PUSH2 0x1212 JUMP JUMPDEST SWAP2 POP POP SWAP3 SWAP2 POP POP JUMP JUMPDEST PUSH1 0x0 DUP2 MLOAD SWAP1 POP SWAP2 SWAP1 POP JUMP JUMPDEST PUSH1 0x0 DUP2 SWAP1 POP SWAP3 SWAP2 POP POP JUMP JUMPDEST PUSH1 0x0 JUMPDEST DUP4 DUP2 LT ISZERO PUSH2 0x1288 JUMPI DUP1 DUP3 ADD MLOAD DUP2 DUP5 ADD MSTORE PUSH1 0x20 DUP2 ADD SWAP1 POP PUSH2 0x126D JUMP JUMPDEST DUP4 DUP2 GT ISZERO PUSH2 0x1297 JUMPI PUSH1 0x0 DUP5 DUP5 ADD MSTORE JUMPDEST POP POP POP POP JUMP JUMPDEST PUSH1 0x0 PUSH2 0x12A8 DUP3 PUSH2 0x1254 JUMP JUMPDEST PUSH2 0x12B2 DUP2 DUP6 PUSH2 0x125F JUMP JUMPDEST SWAP4 POP PUSH2 0x12C2 DUP2 DUP6 PUSH1 0x20 DUP7 ADD PUSH2 0x126A JUMP JUMPDEST DUP1 DUP5 ADD SWAP2 POP POP SWAP3 SWAP2 POP POP JUMP JUMPDEST PUSH1 0x0 PUSH2 0x12DA DUP3 DUP5 PUSH2 0x129D JUMP JUMPDEST SWAP2 POP DUP2 SWAP1 POP SWAP3 SWAP2 POP POP JUMP JUMPDEST PUSH1 0x0 DUP2 MLOAD SWAP1 POP SWAP2 SWAP1 POP JUMP JUMPDEST PUSH1 0x0 DUP2 SWAP1 POP SWAP3 SWAP2 POP POP JUMP JUMPDEST PUSH1 0x0 PUSH2 0x1306 DUP3 PUSH2 0x12E5 JUMP JUMPDEST PUSH2 0x1310 DUP2 DUP6 PUSH2 0x12F0 JUMP JUMPDEST SWAP4 POP PUSH2 0x1320 DUP2 DUP6 PUSH1 0x20 DUP7 ADD PUSH2 0x126A JUMP JUMPDEST DUP1 DUP5 ADD SWAP2 POP POP SWAP3 SWAP2 POP POP JUMP JUMPDEST PUSH1 0x0 PUSH2 0x1338 DUP3 DUP5 PUSH2 0x12FB JUMP JUMPDEST SWAP2 POP DUP2 SWAP1 POP SWAP3 SWAP2 POP POP JUMP JUMPDEST PUSH1 0x0 DUP2 MLOAD SWAP1 POP PUSH2 0x1352 DUP2 PUSH2 0x11FB JUMP JUMPDEST SWAP3 SWAP2 POP POP JUMP JUMPDEST PUSH1 0x0 PUSH1 0x20 DUP3 DUP5 SUB SLT ISZERO PUSH2 0x136E JUMPI PUSH2 0x136D PUSH2 0xE8D JUMP JUMPDEST JUMPDEST PUSH1 0x0 PUSH2 0x137C DUP5 DUP3 DUP6 ADD PUSH2 0x1343 JUMP JUMPDEST SWAP2 POP POP SWAP3 SWAP2 POP POP JUMP JUMPDEST PUSH32 0x4E487B7100000000000000000000000000000000000000000000000000000000 PUSH1 0x0 MSTORE PUSH1 0x11 PUSH1 0x4 MSTORE PUSH1 0x24 PUSH1 0x0 REVERT JUMPDEST PUSH1 0x0 PUSH2 0x13BF DUP3 PUSH2 0xE19 JUMP JUMPDEST SWAP2 POP PUSH2 0x13CA DUP4 PUSH2 0xE19 JUMP JUMPDEST SWAP3 POP DUP3 PUSH32 0xFFFFFFFFFFFFFFFFFFFFFFFFFFFFFFFFFFFFFFFFFFFFFFFFFFFFFFFFFFFFFFFF SUB DUP3 GT ISZERO PUSH2 0x13FF JUMPI PUSH2 0x13FE PUSH2 0x1385 JUMP JUMPDEST JUMPDEST DUP3 DUP3 ADD SWAP1 POP SWAP3 SWAP2 POP POP JUMP JUMPDEST PUSH32 0x4E487B7100000000000000000000000000000000000000000000000000000000 PUSH1 0x0 MSTORE PUSH1 0x32 PUSH1 0x4 MSTORE PUSH1 0x24 PUSH1 0x0 REVERT INVALID LOG2 PUSH5 0x6970667358 0x22 SLT KECCAK256 0xD3 SWAP13 0xD2 PUSH3 0x7EAB14 0xE0 EXTCODESIZE DELEGATECALL 0xED 0xD1 0xB5 LOG2 RETURN SLT PUSH1 0x71 0xCB LOG4 DUP12 AND SLOAD 0xED ADDMOD 0xA9 PUSH9 0x5FC854858B64736F6C PUSH4 0x4300080B STOP CALLER "
        },
        "methodIdentifiers": {
          "Alice()": "9877bdff",
          "BET_MIN()": "2626ab08",
          "Bob()": "6d877f91",
          "EMPTY_ADDRESS()": "eb39c3af",
          "balanceReceived()": "52a90c42",
          "bothPlayed()": "807c8504",
          "bothRevealed()": "43445ca8",
          "daiToken()": "be22f546",
          "getContractBalance()": "6f9fb98a",
          "getOutcome()": "7e7e4b47",
          "initialBet()": "1d73c64c",
          "play(bytes32)": "c7a1865b",
          "reveal(string)": "4c261247"
        }
      }
    }
  }
}