{
  "_format": "hh-sol-artifact-1",
  "contractName": "RockPaperScissors",
  "sourceName": "contracts/RockPaperScissors.sol",
  "abi": [
    {
      "inputs": [
        {
          "internalType": "uint256",
          "name": "_initialBet",
          "type": "uint256"
        }
      ],
      "stateMutability": "nonpayable",
      "type": "constructor"
    },
    {
      "anonymous": false,
      "inputs": [
        {
          "indexed": false,
          "internalType": "string",
          "name": "_e",
          "type": "string"
        }
      ],
      "name": "ThingHappened",
      "type": "event"
    },
    {
      "inputs": [],
      "name": "Alice",
      "outputs": [
        {
          "internalType": "address payable",
          "name": "",
          "type": "address"
        }
      ],
      "stateMutability": "view",
      "type": "function"
    },
    {
      "inputs": [],
      "name": "BET_MIN",
      "outputs": [
        {
          "internalType": "uint256",
          "name": "",
          "type": "uint256"
        }
      ],
      "stateMutability": "view",
      "type": "function"
    },
    {
      "inputs": [],
      "name": "Bob",
      "outputs": [
        {
          "internalType": "address payable",
          "name": "",
          "type": "address"
        }
      ],
      "stateMutability": "view",
      "type": "function"
    },
    {
      "inputs": [],
      "name": "EMPTY_ADDRESS",
      "outputs": [
        {
          "internalType": "address payable",
          "name": "",
          "type": "address"
        }
      ],
      "stateMutability": "view",
      "type": "function"
    },
    {
      "inputs": [],
      "name": "balanceReceived",
      "outputs": [
        {
          "internalType": "uint256",
          "name": "",
          "type": "uint256"
        }
      ],
      "stateMutability": "view",
      "type": "function"
    },
    {
      "inputs": [],
      "name": "bothPlayed",
      "outputs": [
        {
          "internalType": "bool",
          "name": "",
          "type": "bool"
        }
      ],
      "stateMutability": "view",
      "type": "function"
    },
    {
      "inputs": [],
      "name": "bothRevealed",
      "outputs": [
        {
          "internalType": "bool",
          "name": "",
          "type": "bool"
        }
      ],
      "stateMutability": "view",
      "type": "function"
    },
    {
      "inputs": [],
      "name": "daiToken",
      "outputs": [
        {
          "internalType": "contract IERC20",
          "name": "",
          "type": "address"
        }
      ],
      "stateMutability": "view",
      "type": "function"
    },
    {
      "inputs": [],
      "name": "deposit",
      "outputs": [],
      "stateMutability": "payable",
      "type": "function"
    },
    {
      "inputs": [
        {
          "internalType": "string",
          "name": "clearMove",
          "type": "string"
        },
        {
          "internalType": "uint256",
          "name": "pirvateKy",
          "type": "uint256"
        }
      ],
      "name": "encryptMove",
      "outputs": [
        {
          "internalType": "bytes32",
          "name": "",
          "type": "bytes32"
        }
      ],
      "stateMutability": "pure",
      "type": "function"
    },
    {
      "inputs": [],
      "name": "getContractBalance",
      "outputs": [
        {
          "internalType": "uint256",
          "name": "",
          "type": "uint256"
        }
      ],
      "stateMutability": "view",
      "type": "function"
    },
    {
      "inputs": [
        {
          "internalType": "enum RockPaperScissors.Moves",
          "name": "move",
          "type": "uint8"
        }
      ],
      "name": "getMoveKeyByValue",
      "outputs": [
        {
          "internalType": "string",
          "name": "",
          "type": "string"
        }
      ],
      "stateMutability": "pure",
      "type": "function"
    },
    {
      "inputs": [],
      "name": "getMoveKeys",
      "outputs": [
        {
          "internalType": "string",
          "name": "",
          "type": "string"
        },
        {
          "internalType": "string",
          "name": "",
          "type": "string"
        },
        {
          "internalType": "string",
          "name": "",
          "type": "string"
        },
        {
          "internalType": "string",
          "name": "",
          "type": "string"
        }
      ],
      "stateMutability": "pure",
      "type": "function"
    },
    {
      "inputs": [
        {
          "internalType": "string",
          "name": "moveStr",
          "type": "string"
        }
      ],
      "name": "getMoveValueByKey",
      "outputs": [
        {
          "internalType": "enum RockPaperScissors.Moves",
          "name": "",
          "type": "uint8"
        }
      ],
      "stateMutability": "pure",
      "type": "function"
    },
    {
      "inputs": [],
      "name": "getOutcome",
      "outputs": [
        {
          "internalType": "enum RockPaperScissors.Outcomes",
          "name": "",
          "type": "uint8"
        }
      ],
      "stateMutability": "nonpayable",
      "type": "function"
    },
    {
      "inputs": [],
      "name": "initialBet",
      "outputs": [
        {
          "internalType": "uint256",
          "name": "",
          "type": "uint256"
        }
      ],
      "stateMutability": "view",
      "type": "function"
    },
    {
      "inputs": [
        {
          "internalType": "bytes32",
          "name": "Move",
          "type": "bytes32"
        }
      ],
      "name": "play",
      "outputs": [
        {
          "internalType": "bool",
          "name": "",
          "type": "bool"
        }
      ],
      "stateMutability": "nonpayable",
      "type": "function"
    },
    {
      "inputs": [],
      "name": "reserveSpot",
      "outputs": [],
      "stateMutability": "nonpayable",
      "type": "function"
    },
    {
      "inputs": [
        {
          "internalType": "string",
          "name": "clearMove",
          "type": "string"
        }
      ],
      "name": "reveal",
      "outputs": [
        {
          "internalType": "enum RockPaperScissors.Moves",
          "name": "",
          "type": "uint8"
        }
      ],
      "stateMutability": "nonpayable",
      "type": "function"
    }
  ],
  "bytecode": "0x608060405260016000556236ee806004553480156200001d57600080fd5b5060405162002642380380620026428339818101604052810190620000439190620000d9565b6000548110156200008b576040517f08c379a000000000000000000000000000000000000000000000000000000000815260040162000082906200016c565b60405180910390fd5b80600181905550506200018e565b600080fd5b6000819050919050565b620000b3816200009e565b8114620000bf57600080fd5b50565b600081519050620000d381620000a8565b92915050565b600060208284031215620000f257620000f162000099565b5b60006200010284828501620000c2565b91505092915050565b600082825260208201905092915050565b7f496e697469616c2062657420746f6f20736d616c6c0000000000000000000000600082015250565b6000620001546015836200010b565b915062000161826200011c565b602082019050919050565b60006020820190508181036000830152620001878162000145565b9050919050565b6124a4806200019e6000396000f3fe6080604052600436106101145760003560e01c8063807c8504116100a0578063c3a9a51a11610064578063c3a9a51a14610386578063c7a1865b146103c3578063d0e30db014610400578063eb39c3af1461040a578063f61eea751461043557610114565b8063807c8504146102b15780638a5efa4e146102dc5780639877bdff146102f3578063a30bbf991461031e578063be22f5461461035b57610114565b80634c261247116100e75780634c261247146101c857806352a90c42146102055780636d877f91146102305780636f9fb98a1461025b5780637e7e4b471461028657610114565b80631d73c64c1461011957806323499c45146101445780632626ab081461017257806343445ca81461019d575b600080fd5b34801561012557600080fd5b5061012e610472565b60405161013b91906118ff565b60405180910390f35b34801561015057600080fd5b50610159610478565b60405161016994939291906119b3565b60405180910390f35b34801561017e57600080fd5b50610187610564565b60405161019491906118ff565b60405180910390f35b3480156101a957600080fd5b506101b261056a565b6040516101bf9190611a2f565b60405180910390f35b3480156101d457600080fd5b506101ef60048036038101906101ea9190611b93565b6105e8565b6040516101fc9190611c53565b60405180910390f35b34801561021157600080fd5b5061021a6107af565b60405161022791906118ff565b60405180910390f35b34801561023c57600080fd5b506102456107b5565b6040516102529190611caf565b60405180910390f35b34801561026757600080fd5b506102706107db565b60405161027d91906118ff565b60405180910390f35b34801561029257600080fd5b5061029b6107e3565b6040516102a89190611d12565b60405180910390f35b3480156102bd57600080fd5b506102c6610b4f565b6040516102d39190611a2f565b60405180910390f35b3480156102e857600080fd5b506102f1610b70565b005b3480156102ff57600080fd5b50610308610d8b565b6040516103159190611caf565b60405180910390f35b34801561032a57600080fd5b5061034560048036038101906103409190611b93565b610db1565b6040516103529190611c53565b60405180910390f35b34801561036757600080fd5b50610370611028565b60405161037d9190611d8c565b60405180910390f35b34801561039257600080fd5b506103ad60048036038101906103a89190611dcc565b61104e565b6040516103ba9190611df9565b60405180910390f35b3480156103cf57600080fd5b506103ea60048036038101906103e59190611e51565b61120f565b6040516103f79190611a2f565b60405180910390f35b61040861133a565b005b34801561041657600080fd5b5061041f61154f565b60405161042c9190611caf565b60405180910390f35b34801561044157600080fd5b5061045c60048036038101906104579190611eaa565b611575565b6040516104699190611f15565b60405180910390f35b60015481565b6060806060806040518060400160405280600481526020017f4e6f6e65000000000000000000000000000000000000000000000000000000008152506040518060400160405280600481526020017f526f636b000000000000000000000000000000000000000000000000000000008152506040518060400160405280600581526020017f50617065720000000000000000000000000000000000000000000000000000008152506040518060400160405280600881526020017f53636973736f7273000000000000000000000000000000000000000000000000815250935093509350935090919293565b60005481565b600080600381111561057f5761057e611bdc565b5b600b60009054906101000a900460ff1660038111156105a1576105a0611bdc565b5b141580156105e35750600060038111156105be576105bd611bdc565b5b600b60019054906101000a900460ff1660038111156105e0576105df611bdc565b5b14155b905090565b60008060001b6009541415801561060457506000801b600a5414155b61060d57600080fd5b600061061a836000611575565b9050600061062784610db1565b90506000600381111561063d5761063c611bdc565b5b8160038111156106505761064f611bdc565b5b1415610661576000925050506107aa565b600560009054906101000a900473ffffffffffffffffffffffffffffffffffffffff1673ffffffffffffffffffffffffffffffffffffffff163373ffffffffffffffffffffffffffffffffffffffff161480156106bf575060095482145b156106f35780600b60006101000a81548160ff021916908360038111156106e9576106e8611bdc565b5b0217905550610791565b600660009054906101000a900473ffffffffffffffffffffffffffffffffffffffff1673ffffffffffffffffffffffffffffffffffffffff163373ffffffffffffffffffffffffffffffffffffffff161480156107515750600a5482145b156107855780600b60016101000a81548160ff0219169083600381111561077b5761077a611bdc565b5b0217905550610790565b6000925050506107aa565b5b600060035414156107a457426003819055505b80925050505b919050565b60025481565b600560009054906101000a900473ffffffffffffffffffffffffffffffffffffffff1681565b600047905090565b60008060038111156107f8576107f7611bdc565b5b600b60009054906101000a900460ff16600381111561081a57610819611bdc565b5b1415801561085c57506000600381111561083757610836611bdc565b5b600b60019054906101000a900460ff16600381111561085957610858611bdc565b5b14155b80610884575060006003541415801561088357506004546003546108809190611f5f565b42115b5b61088d57600080fd5b6000600b60019054906101000a900460ff1660038111156108b1576108b0611bdc565b5b600b60009054906101000a900460ff1660038111156108d3576108d2611bdc565b5b14156108e25760039050610ae2565b600160038111156108f6576108f5611bdc565b5b600b60009054906101000a900460ff16600381111561091857610917611bdc565b5b148015610957575060038081111561093357610932611bdc565b5b600b60019054906101000a900460ff16600381111561095557610954611bdc565b5b145b806109d457506002600381111561097157610970611bdc565b5b600b60009054906101000a900460ff16600381111561099357610992611bdc565b5b1480156109d35750600160038111156109af576109ae611bdc565b5b600b60019054906101000a900460ff1660038111156109d1576109d0611bdc565b5b145b5b80610a5057506003808111156109ed576109ec611bdc565b5b600b60009054906101000a900460ff166003811115610a0f57610a0e611bdc565b5b148015610a4f575060026003811115610a2b57610a2a611bdc565b5b600b60019054906101000a900460ff166003811115610a4d57610a4c611bdc565b5b145b5b80610ace575060006003811115610a6a57610a69611bdc565b5b600b60009054906101000a900460ff166003811115610a8c57610a8b611bdc565b5b14158015610acd575060006003811115610aa957610aa8611bdc565b5b600b60019054906101000a900460ff166003811115610acb57610aca611bdc565b5b145b5b15610adc5760019050610ae1565b600290505b5b6000600560009054906101000a900473ffffffffffffffffffffffffffffffffffffffff1690506000600660009054906101000a900473ffffffffffffffffffffffffffffffffffffffff169050610b386115ee565b610b4682826001548661175e565b82935050505090565b60008060001b60095414158015610b6b57506000801b600a5414155b905090565b600760009054906101000a900473ffffffffffffffffffffffffffffffffffffffff1673ffffffffffffffffffffffffffffffffffffffff16600560009054906101000a900473ffffffffffffffffffffffffffffffffffffffff1673ffffffffffffffffffffffffffffffffffffffff161415610c2e5733600560006101000a81548173ffffffffffffffffffffffffffffffffffffffff021916908373ffffffffffffffffffffffffffffffffffffffff160217905550610d89565b600760009054906101000a900473ffffffffffffffffffffffffffffffffffffffff1673ffffffffffffffffffffffffffffffffffffffff16600660009054906101000a900473ffffffffffffffffffffffffffffffffffffffff1673ffffffffffffffffffffffffffffffffffffffff16148015610cfb5750600560009054906101000a900473ffffffffffffffffffffffffffffffffffffffff1673ffffffffffffffffffffffffffffffffffffffff163373ffffffffffffffffffffffffffffffffffffffff1614155b15610d465733600660006101000a81548173ffffffffffffffffffffffffffffffffffffffff021916908373ffffffffffffffffffffffffffffffffffffffff160217905550610d88565b6000610d87576040517f08c379a0000000000000000000000000000000000000000000000000000000008152600401610d7e90612001565b60405180910390fd5b5b5b565b600660009054906101000a900473ffffffffffffffffffffffffffffffffffffffff1681565b600080600283604051602001610dc7919061205d565b604051602081830303815290604052604051610de391906120bb565b602060405180830381855afa158015610e00573d6000803e3d6000fd5b5050506040513d601f19601f82011682018060405250810190610e2391906120e7565b90506002604051602001610e3690612160565b604051602081830303815290604052604051610e5291906120bb565b602060405180830381855afa158015610e6f573d6000803e3d6000fd5b5050506040513d601f19601f82011682018060405250810190610e9291906120e7565b811415610ea3576000915050611023565b6002604051602001610eb4906121c1565b604051602081830303815290604052604051610ed091906120bb565b602060405180830381855afa158015610eed573d6000803e3d6000fd5b5050506040513d601f19601f82011682018060405250810190610f1091906120e7565b811415610f21576001915050611023565b6002604051602001610f3290612222565b604051602081830303815290604052604051610f4e91906120bb565b602060405180830381855afa158015610f6b573d6000803e3d6000fd5b5050506040513d601f19601f82011682018060405250810190610f8e91906120e7565b811415610f9f576002915050611023565b6002604051602001610fb090612283565b604051602081830303815290604052604051610fcc91906120bb565b602060405180830381855afa158015610fe9573d6000803e3d6000fd5b5050506040513d601f19601f8201168201806040525081019061100c91906120e7565b81141561101d576003915050611023565b60009150505b919050565b600860009054906101000a900473ffffffffffffffffffffffffffffffffffffffff1681565b606081600381111561106357611062611bdc565b5b6000600381111561107757611076611bdc565b5b14156110ba576040518060400160405280600481526020017f4e6f6e6500000000000000000000000000000000000000000000000000000000815250905061120a565b8160038111156110cd576110cc611bdc565b5b600160038111156110e1576110e0611bdc565b5b1415611124576040518060400160405280600481526020017f526f636b00000000000000000000000000000000000000000000000000000000815250905061120a565b81600381111561113757611136611bdc565b5b6002600381111561114b5761114a611bdc565b5b141561118e576040518060400160405280600581526020017f5061706572000000000000000000000000000000000000000000000000000000815250905061120a565b8160038111156111a1576111a0611bdc565b5b6003808111156111b4576111b3611bdc565b5b14156111f7576040518060400160405280600881526020017f53636973736f7273000000000000000000000000000000000000000000000000815250905061120a565b6040518060200160405280600081525090505b919050565b6000600b60029054906101000a900460ff1680156112395750600b60039054906101000a900460ff165b61124257600080fd5b600560009054906101000a900473ffffffffffffffffffffffffffffffffffffffff1673ffffffffffffffffffffffffffffffffffffffff163373ffffffffffffffffffffffffffffffffffffffff161480156112a357506000801b600954145b156112b45781600981905550611330565b600660009054906101000a900473ffffffffffffffffffffffffffffffffffffffff1673ffffffffffffffffffffffffffffffffffffffff163373ffffffffffffffffffffffffffffffffffffffff1614801561131557506000801b600a54145b156113265781600a8190555061132f565b60009050611335565b5b600190505b919050565b600154341461137e576040517f08c379a00000000000000000000000000000000000000000000000000000000081526004016113759061230a565b60405180910390fd5b600560009054906101000a900473ffffffffffffffffffffffffffffffffffffffff1673ffffffffffffffffffffffffffffffffffffffff163373ffffffffffffffffffffffffffffffffffffffff16141561144457600b60029054906101000a900460ff1615611424576040517f08c379a000000000000000000000000000000000000000000000000000000000815260040161141b90612376565b60405180910390fd5b6001600b60026101000a81548160ff02191690831515021790555061154d565b600660009054906101000a900473ffffffffffffffffffffffffffffffffffffffff1673ffffffffffffffffffffffffffffffffffffffff163373ffffffffffffffffffffffffffffffffffffffff16141561150a57600b60039054906101000a900460ff16156114ea576040517f08c379a00000000000000000000000000000000000000000000000000000000081526004016114e1906123e2565b60405180910390fd5b6001600b60036101000a81548160ff02191690831515021790555061154c565b600061154b576040517f08c379a00000000000000000000000000000000000000000000000000000000081526004016115429061244e565b60405180910390fd5b5b5b565b600760009054906101000a900473ffffffffffffffffffffffffffffffffffffffff1681565b600060028360405160200161158a919061205d565b6040516020818303038152906040526040516115a691906120bb565b602060405180830381855afa1580156115c3573d6000803e3d6000fd5b5050506040513d601f19601f820116820180604052508101906115e691906120e7565b905092915050565b6000600381905550600760009054906101000a900473ffffffffffffffffffffffffffffffffffffffff16600560006101000a81548173ffffffffffffffffffffffffffffffffffffffff021916908373ffffffffffffffffffffffffffffffffffffffff160217905550600760009054906101000a900473ffffffffffffffffffffffffffffffffffffffff16600660006101000a81548173ffffffffffffffffffffffffffffffffffffffff021916908373ffffffffffffffffffffffffffffffffffffffff1602179055506000801b6009819055506000801b600a819055506000600b60006101000a81548160ff021916908360038111156116f6576116f5611bdc565b5b02179055506000600b60016101000a81548160ff0219169083600381111561172157611720611bdc565b5b02179055506000600b60036101000a81548160ff0219169083151502179055506000600b60026101000a81548160ff021916908315150217905550565b6001600381111561177257611771611bdc565b5b81600381111561178557611784611bdc565b5b14156117d7578373ffffffffffffffffffffffffffffffffffffffff166108fc479081150290604051600060405180830381858888f193505050501580156117d1573d6000803e3d6000fd5b506118e0565b600260038111156117eb576117ea611bdc565b5b8160038111156117fe576117fd611bdc565b5b1415611850578273ffffffffffffffffffffffffffffffffffffffff166108fc479081150290604051600060405180830381858888f1935050505015801561184a573d6000803e3d6000fd5b506118df565b8373ffffffffffffffffffffffffffffffffffffffff166108fc839081150290604051600060405180830381858888f19350505050158015611896573d6000803e3d6000fd5b508273ffffffffffffffffffffffffffffffffffffffff166108fc479081150290604051600060405180830381858888f193505050501580156118dd573d6000803e3d6000fd5b505b5b50505050565b6000819050919050565b6118f9816118e6565b82525050565b600060208201905061191460008301846118f0565b92915050565b600081519050919050565b600082825260208201905092915050565b60005b83811015611954578082015181840152602081019050611939565b83811115611963576000848401525b50505050565b6000601f19601f8301169050919050565b60006119858261191a565b61198f8185611925565b935061199f818560208601611936565b6119a881611969565b840191505092915050565b600060808201905081810360008301526119cd818761197a565b905081810360208301526119e1818661197a565b905081810360408301526119f5818561197a565b90508181036060830152611a09818461197a565b905095945050505050565b60008115159050919050565b611a2981611a14565b82525050565b6000602082019050611a446000830184611a20565b92915050565b6000604051905090565b600080fd5b600080fd5b600080fd5b600080fd5b7f4e487b7100000000000000000000000000000000000000000000000000000000600052604160045260246000fd5b611aa082611969565b810181811067ffffffffffffffff82111715611abf57611abe611a68565b5b80604052505050565b6000611ad2611a4a565b9050611ade8282611a97565b919050565b600067ffffffffffffffff821115611afe57611afd611a68565b5b611b0782611969565b9050602081019050919050565b82818337600083830152505050565b6000611b36611b3184611ae3565b611ac8565b905082815260208101848484011115611b5257611b51611a63565b5b611b5d848285611b14565b509392505050565b600082601f830112611b7a57611b79611a5e565b5b8135611b8a848260208601611b23565b91505092915050565b600060208284031215611ba957611ba8611a54565b5b600082013567ffffffffffffffff811115611bc757611bc6611a59565b5b611bd384828501611b65565b91505092915050565b7f4e487b7100000000000000000000000000000000000000000000000000000000600052602160045260246000fd5b60048110611c1c57611c1b611bdc565b5b50565b6000819050611c2d82611c0b565b919050565b6000611c3d82611c1f565b9050919050565b611c4d81611c32565b82525050565b6000602082019050611c686000830184611c44565b92915050565b600073ffffffffffffffffffffffffffffffffffffffff82169050919050565b6000611c9982611c6e565b9050919050565b611ca981611c8e565b82525050565b6000602082019050611cc46000830184611ca0565b92915050565b60048110611cdb57611cda611bdc565b5b50565b6000819050611cec82611cca565b919050565b6000611cfc82611cde565b9050919050565b611d0c81611cf1565b82525050565b6000602082019050611d276000830184611d03565b92915050565b6000819050919050565b6000611d52611d4d611d4884611c6e565b611d2d565b611c6e565b9050919050565b6000611d6482611d37565b9050919050565b6000611d7682611d59565b9050919050565b611d8681611d6b565b82525050565b6000602082019050611da16000830184611d7d565b92915050565b60048110611db457600080fd5b50565b600081359050611dc681611da7565b92915050565b600060208284031215611de257611de1611a54565b5b6000611df084828501611db7565b91505092915050565b60006020820190508181036000830152611e13818461197a565b905092915050565b6000819050919050565b611e2e81611e1b565b8114611e3957600080fd5b50565b600081359050611e4b81611e25565b92915050565b600060208284031215611e6757611e66611a54565b5b6000611e7584828501611e3c565b91505092915050565b611e87816118e6565b8114611e9257600080fd5b50565b600081359050611ea481611e7e565b92915050565b60008060408385031215611ec157611ec0611a54565b5b600083013567ffffffffffffffff811115611edf57611ede611a59565b5b611eeb85828601611b65565b9250506020611efc85828601611e95565b9150509250929050565b611f0f81611e1b565b82525050565b6000602082019050611f2a6000830184611f06565b92915050565b7f4e487b7100000000000000000000000000000000000000000000000000000000600052601160045260246000fd5b6000611f6a826118e6565b9150611f75836118e6565b9250827fffffffffffffffffffffffffffffffffffffffffffffffffffffffffffffffff03821115611faa57611fa9611f30565b5b828201905092915050565b7f5468697320636f6e747261637420686173206265656e2074616b656e00000000600082015250565b6000611feb601c83611925565b9150611ff682611fb5565b602082019050919050565b6000602082019050818103600083015261201a81611fde565b9050919050565b600081905092915050565b60006120378261191a565b6120418185612021565b9350612051818560208601611936565b80840191505092915050565b6000612069828461202c565b915081905092915050565b600081519050919050565b600081905092915050565b600061209582612074565b61209f818561207f565b93506120af818560208601611936565b80840191505092915050565b60006120c7828461208a565b915081905092915050565b6000815190506120e181611e25565b92915050565b6000602082840312156120fd576120fc611a54565b5b600061210b848285016120d2565b91505092915050565b7f4e6f6e6500000000000000000000000000000000000000000000000000000000600082015250565b600061214a600483612021565b915061215582612114565b600482019050919050565b600061216b8261213d565b9150819050919050565b7f526f636b00000000000000000000000000000000000000000000000000000000600082015250565b60006121ab600483612021565b91506121b682612175565b600482019050919050565b60006121cc8261219e565b9150819050919050565b7f5061706572000000000000000000000000000000000000000000000000000000600082015250565b600061220c600583612021565b9150612217826121d6565b600582019050919050565b600061222d826121ff565b9150819050919050565b7f53636973736f7273000000000000000000000000000000000000000000000000600082015250565b600061226d600883612021565b915061227882612237565b600882019050919050565b600061228e82612260565b9150819050919050565b7f50726f76696465642076616c7565206e6f7420657175616c20746f207468652060008201527f696e697469616c20426574000000000000000000000000000000000000000000602082015250565b60006122f4602b83611925565b91506122ff82612298565b604082019050919050565b60006020820190508181036000830152612323816122e7565b9050919050565b7f426f6220616c7265616479207061696400000000000000000000000000000000600082015250565b6000612360601083611925565b915061236b8261232a565b602082019050919050565b6000602082019050818103600083015261238f81612353565b9050919050565b7f416c69636520616c726561647920706169640000000000000000000000000000600082015250565b60006123cc601283611925565b91506123d782612396565b602082019050919050565b600060208201905081810360008301526123fb816123bf565b9050919050565b7f696e76616c696420757365720000000000000000000000000000000000000000600082015250565b6000612438600c83611925565b915061244382612402565b602082019050919050565b600060208201905081810360008301526124678161242b565b905091905056fea2646970667358221220c0647e5f02ad218719a297f1332dd9f068d9cb4c051bad1fe21c60b4f4e230be64736f6c634300080b0033",
  "linkReferences": {},
  "deployedLinkReferences": {}
}