{
  "_format": "hh-sol-artifact-1",
  "contractName": "RockPaperScissors",
  "sourceName": "contracts/RockPaperScissors.sol",
  "abi": [
    {
      "inputs": [
        {
          "internalType": "uint256",
          "name": "_initialBet",
          "type": "uint256"
        }
      ],
      "stateMutability": "nonpayable",
      "type": "constructor"
    },
    {
      "inputs": [],
      "name": "Alice",
      "outputs": [
        {
          "internalType": "address payable",
          "name": "",
          "type": "address"
        }
      ],
      "stateMutability": "view",
      "type": "function"
    },
    {
      "inputs": [],
      "name": "BET_MIN",
      "outputs": [
        {
          "internalType": "uint256",
          "name": "",
          "type": "uint256"
        }
      ],
      "stateMutability": "view",
      "type": "function"
    },
    {
      "inputs": [],
      "name": "Bob",
      "outputs": [
        {
          "internalType": "address payable",
          "name": "",
          "type": "address"
        }
      ],
      "stateMutability": "view",
      "type": "function"
    },
    {
      "inputs": [],
      "name": "EMPTY_ADDRESS",
      "outputs": [
        {
          "internalType": "address payable",
          "name": "",
          "type": "address"
        }
      ],
      "stateMutability": "view",
      "type": "function"
    },
    {
      "inputs": [],
      "name": "balanceReceived",
      "outputs": [
        {
          "internalType": "uint256",
          "name": "",
          "type": "uint256"
        }
      ],
      "stateMutability": "view",
      "type": "function"
    },
    {
      "inputs": [],
      "name": "bothPlayed",
      "outputs": [
        {
          "internalType": "bool",
          "name": "",
          "type": "bool"
        }
      ],
      "stateMutability": "view",
      "type": "function"
    },
    {
      "inputs": [],
      "name": "bothRevealed",
      "outputs": [
        {
          "internalType": "bool",
          "name": "",
          "type": "bool"
        }
      ],
      "stateMutability": "view",
      "type": "function"
    },
    {
      "inputs": [],
      "name": "daiToken",
      "outputs": [
        {
          "internalType": "contract IERC20",
          "name": "",
          "type": "address"
        }
      ],
      "stateMutability": "view",
      "type": "function"
    },
    {
      "inputs": [],
      "name": "getContractBalance",
      "outputs": [
        {
          "internalType": "uint256",
          "name": "",
          "type": "uint256"
        }
      ],
      "stateMutability": "view",
      "type": "function"
    },
    {
      "inputs": [],
      "name": "getOutcome",
      "outputs": [
        {
          "internalType": "enum RockPaperScissors.Outcomes",
          "name": "",
          "type": "uint8"
        }
      ],
      "stateMutability": "nonpayable",
      "type": "function"
    },
    {
      "inputs": [],
      "name": "initialBet",
      "outputs": [
        {
          "internalType": "uint256",
          "name": "",
          "type": "uint256"
        }
      ],
      "stateMutability": "view",
      "type": "function"
    },
    {
      "inputs": [
        {
          "internalType": "bytes32",
          "name": "Move",
          "type": "bytes32"
        }
      ],
      "name": "play",
      "outputs": [
        {
          "internalType": "bool",
          "name": "",
          "type": "bool"
        }
      ],
      "stateMutability": "nonpayable",
      "type": "function"
    },
    {
      "inputs": [
        {
          "internalType": "string",
          "name": "clearMove",
          "type": "string"
        }
      ],
      "name": "reveal",
      "outputs": [
        {
          "internalType": "enum RockPaperScissors.Moves",
          "name": "",
          "type": "uint8"
        }
      ],
      "stateMutability": "nonpayable",
      "type": "function"
    }
  ],
  "bytecode": "0x608060405260016000556236ee806004553480156200001d57600080fd5b5060405162001552380380620015528339818101604052810190620000439190620000a1565b6000548110156200005357600080fd5b8060018190555050620000d3565b600080fd5b6000819050919050565b6200007b8162000066565b81146200008757600080fd5b50565b6000815190506200009b8162000070565b92915050565b600060208284031215620000ba57620000b962000061565b5b6000620000ca848285016200008a565b91505092915050565b61146f80620000e36000396000f3fe608060405234801561001057600080fd5b50600436106100cf5760003560e01c80636f9fb98a1161008c5780639877bdff116100665780639877bdff146101f4578063be22f54614610212578063c7a1865b14610230578063eb39c3af14610260576100cf565b80636f9fb98a1461019a5780637e7e4b47146101b8578063807c8504146101d6576100cf565b80631d73c64c146100d45780632626ab08146100f257806343445ca8146101105780634c2612471461012e57806352a90c421461015e5780636d877f911461017c575b600080fd5b6100dc61027e565b6040516100e99190610e32565b60405180910390f35b6100fa610284565b6040516101079190610e32565b60405180910390f35b61011861028a565b6040516101259190610e68565b60405180910390f35b61014860048036038101906101439190610fdd565b610308565b604051610155919061109d565b60405180910390f35b610166610545565b6040516101739190610e32565b60405180910390f35b61018461054b565b60405161019191906110f9565b60405180910390f35b6101a2610571565b6040516101af9190610e32565b60405180910390f35b6101c0610579565b6040516101cd919061115c565b60405180910390f35b6101de6108eb565b6040516101eb9190610e68565b60405180910390f35b6101fc61090c565b60405161020991906110f9565b60405180910390f35b61021a610932565b60405161022791906111d6565b60405180910390f35b61024a60048036038101906102459190611227565b610958565b6040516102579190610e68565b60405180910390f35b610268610a52565b60405161027591906110f9565b60405180910390f35b60015481565b60005481565b600080600381111561029f5761029e611026565b5b600b60009054906101000a900460ff1660038111156102c1576102c0611026565b5b141580156103035750600060038111156102de576102dd611026565b5b600b60019054906101000a900460ff166003811115610300576102ff611026565b5b14155b905090565b60008060001b6009541415801561032457506000801b600a5414155b61032d57600080fd5b600060028360405160200161034291906112ce565b60405160208183030381529060405260405161035e919061132c565b602060405180830381855afa15801561037b573d6000803e3d6000fd5b5050506040513d601f19601f8201168201806040525081019061039e9190611358565b905060006103ab84610a78565b60038111156103bd576103bc611026565b5b9050600060038111156103d3576103d2611026565b5b8160038111156103e6576103e5611026565b5b14156103f757600092505050610540565b600560009054906101000a900473ffffffffffffffffffffffffffffffffffffffff1673ffffffffffffffffffffffffffffffffffffffff163373ffffffffffffffffffffffffffffffffffffffff16148015610455575060095482145b156104895780600b60006101000a81548160ff0219169083600381111561047f5761047e611026565b5b0217905550610527565b600660009054906101000a900473ffffffffffffffffffffffffffffffffffffffff1673ffffffffffffffffffffffffffffffffffffffff163373ffffffffffffffffffffffffffffffffffffffff161480156104e75750600a5482145b1561051b5780600b60016101000a81548160ff0219169083600381111561051157610510611026565b5b0217905550610526565b600092505050610540565b5b6000600354141561053a57426003819055505b80925050505b919050565b60025481565b600560009054906101000a900473ffffffffffffffffffffffffffffffffffffffff1681565b600047905090565b600080600381111561058e5761058d611026565b5b600b60009054906101000a900460ff1660038111156105b0576105af611026565b5b141580156105f25750600060038111156105cd576105cc611026565b5b600b60019054906101000a900460ff1660038111156105ef576105ee611026565b5b14155b8061061a5750600060035414158015610619575060045460035461061691906113b4565b42115b5b61062357600080fd5b6000600b60019054906101000a900460ff16600381111561064757610646611026565b5b600b60009054906101000a900460ff16600381111561066957610668611026565b5b14156106785760039050610878565b6001600381111561068c5761068b611026565b5b600b60009054906101000a900460ff1660038111156106ae576106ad611026565b5b1480156106ed57506003808111156106c9576106c8611026565b5b600b60019054906101000a900460ff1660038111156106eb576106ea611026565b5b145b8061076a57506002600381111561070757610706611026565b5b600b60009054906101000a900460ff16600381111561072957610728611026565b5b14801561076957506001600381111561074557610744611026565b5b600b60019054906101000a900460ff16600381111561076757610766611026565b5b145b5b806107e6575060038081111561078357610782611026565b5b600b60009054906101000a900460ff1660038111156107a5576107a4611026565b5b1480156107e55750600260038111156107c1576107c0611026565b5b600b60019054906101000a900460ff1660038111156107e3576107e2611026565b5b145b5b80610864575060006003811115610800576107ff611026565b5b600b60009054906101000a900460ff16600381111561082257610821611026565b5b1415801561086357506000600381111561083f5761083e611026565b5b600b60019054906101000a900460ff16600381111561086157610860611026565b5b145b5b156108725760019050610877565b600290505b5b6000600560009054906101000a900473ffffffffffffffffffffffffffffffffffffffff1690506000600660009054906101000a900473ffffffffffffffffffffffffffffffffffffffff169050600060015490506108d5610b4f565b6108e183838387610c91565b8394505050505090565b60008060001b6009541415801561090757506000801b600a5414155b905090565b600660009054906101000a900473ffffffffffffffffffffffffffffffffffffffff1681565b600860009054906101000a900473ffffffffffffffffffffffffffffffffffffffff1681565b6000600560009054906101000a900473ffffffffffffffffffffffffffffffffffffffff1673ffffffffffffffffffffffffffffffffffffffff163373ffffffffffffffffffffffffffffffffffffffff161480156109bb57506000801b600954145b156109cc5781600981905550610a48565b600660009054906101000a900473ffffffffffffffffffffffffffffffffffffffff1673ffffffffffffffffffffffffffffffffffffffff163373ffffffffffffffffffffffffffffffffffffffff16148015610a2d57506000801b600a54145b15610a3e5781600a81905550610a47565b60009050610a4d565b5b600190505b919050565b600760009054906101000a900473ffffffffffffffffffffffffffffffffffffffff1681565b60008082600081518110610a8f57610a8e61140a565b5b602001015160f81c60f81b9050603160f81b817effffffffffffffffffffffffffffffffffffffffffffffffffffffffffffff19161415610ad4576001915050610b4a565b603260f81b817effffffffffffffffffffffffffffffffffffffffffffffffffffffffffffff19161415610b0c576002915050610b4a565b603360f81b817effffffffffffffffffffffffffffffffffffffffffffffffffffffffffffff19161415610b44576003915050610b4a565b60009150505b919050565b60006001819055506000600381905550600760009054906101000a900473ffffffffffffffffffffffffffffffffffffffff16600560006101000a81548173ffffffffffffffffffffffffffffffffffffffff021916908373ffffffffffffffffffffffffffffffffffffffff160217905550600760009054906101000a900473ffffffffffffffffffffffffffffffffffffffff16600660006101000a81548173ffffffffffffffffffffffffffffffffffffffff021916908373ffffffffffffffffffffffffffffffffffffffff1602179055506000801b6009819055506000801b600a819055506000600b60006101000a81548160ff02191690836003811115610c5f57610c5e611026565b5b02179055506000600b60016101000a81548160ff02191690836003811115610c8a57610c89611026565b5b0217905550565b60016003811115610ca557610ca4611026565b5b816003811115610cb857610cb7611026565b5b1415610d0a578373ffffffffffffffffffffffffffffffffffffffff166108fc479081150290604051600060405180830381858888f19350505050158015610d04573d6000803e3d6000fd5b50610e13565b60026003811115610d1e57610d1d611026565b5b816003811115610d3157610d30611026565b5b1415610d83578273ffffffffffffffffffffffffffffffffffffffff166108fc479081150290604051600060405180830381858888f19350505050158015610d7d573d6000803e3d6000fd5b50610e12565b8373ffffffffffffffffffffffffffffffffffffffff166108fc839081150290604051600060405180830381858888f19350505050158015610dc9573d6000803e3d6000fd5b508273ffffffffffffffffffffffffffffffffffffffff166108fc479081150290604051600060405180830381858888f19350505050158015610e10573d6000803e3d6000fd5b505b5b50505050565b6000819050919050565b610e2c81610e19565b82525050565b6000602082019050610e476000830184610e23565b92915050565b60008115159050919050565b610e6281610e4d565b82525050565b6000602082019050610e7d6000830184610e59565b92915050565b6000604051905090565b600080fd5b600080fd5b600080fd5b600080fd5b6000601f19601f8301169050919050565b7f4e487b7100000000000000000000000000000000000000000000000000000000600052604160045260246000fd5b610eea82610ea1565b810181811067ffffffffffffffff82111715610f0957610f08610eb2565b5b80604052505050565b6000610f1c610e83565b9050610f288282610ee1565b919050565b600067ffffffffffffffff821115610f4857610f47610eb2565b5b610f5182610ea1565b9050602081019050919050565b82818337600083830152505050565b6000610f80610f7b84610f2d565b610f12565b905082815260208101848484011115610f9c57610f9b610e9c565b5b610fa7848285610f5e565b509392505050565b600082601f830112610fc457610fc3610e97565b5b8135610fd4848260208601610f6d565b91505092915050565b600060208284031215610ff357610ff2610e8d565b5b600082013567ffffffffffffffff81111561101157611010610e92565b5b61101d84828501610faf565b91505092915050565b7f4e487b7100000000000000000000000000000000000000000000000000000000600052602160045260246000fd5b6004811061106657611065611026565b5b50565b600081905061107782611055565b919050565b600061108782611069565b9050919050565b6110978161107c565b82525050565b60006020820190506110b2600083018461108e565b92915050565b600073ffffffffffffffffffffffffffffffffffffffff82169050919050565b60006110e3826110b8565b9050919050565b6110f3816110d8565b82525050565b600060208201905061110e60008301846110ea565b92915050565b6004811061112557611124611026565b5b50565b600081905061113682611114565b919050565b600061114682611128565b9050919050565b6111568161113b565b82525050565b6000602082019050611171600083018461114d565b92915050565b6000819050919050565b600061119c611197611192846110b8565b611177565b6110b8565b9050919050565b60006111ae82611181565b9050919050565b60006111c0826111a3565b9050919050565b6111d0816111b5565b82525050565b60006020820190506111eb60008301846111c7565b92915050565b6000819050919050565b611204816111f1565b811461120f57600080fd5b50565b600081359050611221816111fb565b92915050565b60006020828403121561123d5761123c610e8d565b5b600061124b84828501611212565b91505092915050565b600081519050919050565b600081905092915050565b60005b8381101561128857808201518184015260208101905061126d565b83811115611297576000848401525b50505050565b60006112a882611254565b6112b2818561125f565b93506112c281856020860161126a565b80840191505092915050565b60006112da828461129d565b915081905092915050565b600081519050919050565b600081905092915050565b6000611306826112e5565b61131081856112f0565b935061132081856020860161126a565b80840191505092915050565b600061133882846112fb565b915081905092915050565b600081519050611352816111fb565b92915050565b60006020828403121561136e5761136d610e8d565b5b600061137c84828501611343565b91505092915050565b7f4e487b7100000000000000000000000000000000000000000000000000000000600052601160045260246000fd5b60006113bf82610e19565b91506113ca83610e19565b9250827fffffffffffffffffffffffffffffffffffffffffffffffffffffffffffffffff038211156113ff576113fe611385565b5b828201905092915050565b7f4e487b7100000000000000000000000000000000000000000000000000000000600052603260045260246000fdfea2646970667358221220d39cd2627eab14e03bf4edd1b5a2f3126071cba48b1654ed08a9685fc854858b64736f6c634300080b0033",
  "linkReferences": {},
  "deployedLinkReferences": {}
}